{
  "contractName": "ContractRepo",
  "abi": [
    {
      "inputs": [
        {
          "internalType": "uint256",
          "name": "",
          "type": "uint256"
        }
      ],
      "name": "completedContracts",
      "outputs": [
        {
          "internalType": "address",
          "name": "",
          "type": "address"
        }
      ],
      "stateMutability": "view",
      "type": "function",
      "constant": true
    },
    {
      "inputs": [
        {
          "internalType": "uint256",
          "name": "",
          "type": "uint256"
        }
      ],
      "name": "contractAddress",
      "outputs": [
        {
          "internalType": "address",
          "name": "",
          "type": "address"
        }
      ],
      "stateMutability": "view",
      "type": "function",
      "constant": true
    },
    {
      "inputs": [
        {
          "internalType": "address",
          "name": "",
          "type": "address"
        }
      ],
      "name": "contractMapping",
      "outputs": [
        {
          "internalType": "enum ContractRepo.ContractStatus",
          "name": "",
          "type": "uint8"
        }
      ],
      "stateMutability": "view",
      "type": "function",
      "constant": true
    },
    {
      "inputs": [
        {
          "internalType": "address",
          "name": "contractToAppend",
          "type": "address"
        }
      ],
      "name": "addToContracts",
      "outputs": [
        {
          "internalType": "bool",
          "name": "",
          "type": "bool"
        }
      ],
      "stateMutability": "nonpayable",
      "type": "function"
    },
    {
      "inputs": [],
      "name": "getAllContracts",
      "outputs": [
        {
          "internalType": "address[]",
          "name": "",
          "type": "address[]"
        }
      ],
      "stateMutability": "view",
      "type": "function",
      "constant": true
    },
    {
      "inputs": [],
      "name": "getContractCount",
      "outputs": [
        {
          "internalType": "uint256",
          "name": "",
          "type": "uint256"
        }
      ],
      "stateMutability": "view",
      "type": "function",
      "constant": true
    },
    {
      "inputs": [
        {
          "internalType": "uint256",
          "name": "index",
          "type": "uint256"
        }
      ],
      "name": "getOngoingContracts",
      "outputs": [
        {
          "internalType": "address",
          "name": "",
          "type": "address"
        }
      ],
      "stateMutability": "view",
      "type": "function",
      "constant": true
    },
    {
      "inputs": [],
      "name": "getCompletedContracts",
      "outputs": [
        {
          "internalType": "address[]",
          "name": "",
          "type": "address[]"
        }
      ],
      "stateMutability": "view",
      "type": "function",
      "constant": true
    },
    {
      "inputs": [
        {
          "internalType": "address",
          "name": "_contractAddress",
          "type": "address"
        }
      ],
      "name": "updateContractStatusToComplete",
      "outputs": [],
      "stateMutability": "nonpayable",
      "type": "function"
    }
  ],
  "bytecode": "0x608060405234801561001057600080fd5b506109d3806100206000396000f3fe608060405234801561001057600080fd5b50600436106100935760003560e01c80639399869d116100665780639399869d14610134578063a475c3e714610152578063cd10744414610182578063ea86abc3146101b2578063fd17c99e146101e257610093565b80630d0eec091461009857806313c01368146100c857806318d3ce96146100f85780638db7a68f14610116575b600080fd5b6100b260048036038101906100ad91906106ba565b6101fe565b6040516100bf9190610728565b60405180910390f35b6100e260048036038101906100dd91906106ba565b610316565b6040516100ef9190610728565b60405180910390f35b610100610355565b60405161010d9190610801565b60405180910390f35b61011e6103e3565b60405161012b9190610801565b60405180910390f35b61013c610471565b6040516101499190610832565b60405180910390f35b61016c600480360381019061016791906106ba565b61047d565b6040516101799190610728565b60405180910390f35b61019c60048036038101906101979190610879565b6104bc565b6040516101a9919061091d565b60405180910390f35b6101cc60048036038101906101c79190610879565b6104dc565b6040516101d99190610953565b60405180910390f35b6101fc60048036038101906101f79190610879565b6105b1565b005b6000808054905082111561021157600080fd5b60006001811115610225576102246108a6565b5b6002600080858154811061023c5761023b61096e565b5b9060005260206000200160009054906101000a900473ffffffffffffffffffffffffffffffffffffffff1673ffffffffffffffffffffffffffffffffffffffff1673ffffffffffffffffffffffffffffffffffffffff16815260200190815260200160002060009054906101000a900460ff1660018111156102c1576102c06108a6565b5b0361030c57600082815481106102da576102d961096e565b5b9060005260206000200160009054906101000a900473ffffffffffffffffffffffffffffffffffffffff169050610311565b600080fd5b919050565b6000818154811061032657600080fd5b906000526020600020016000915054906101000a900473ffffffffffffffffffffffffffffffffffffffff1681565b606060008054806020026020016040519081016040528092919081815260200182805480156103d957602002820191906000526020600020905b8160009054906101000a900473ffffffffffffffffffffffffffffffffffffffff1673ffffffffffffffffffffffffffffffffffffffff168152602001906001019080831161038f575b5050505050905090565b6060600180548060200260200160405190810160405280929190818152602001828054801561046757602002820191906000526020600020905b8160009054906101000a900473ffffffffffffffffffffffffffffffffffffffff1673ffffffffffffffffffffffffffffffffffffffff168152602001906001019080831161041d575b5050505050905090565b60008080549050905090565b6001818154811061048d57600080fd5b906000526020600020016000915054906101000a900473ffffffffffffffffffffffffffffffffffffffff1681565b60026020528060005260406000206000915054906101000a900460ff1681565b600080829080600181540180825580915050600190039060005260206000200160009091909190916101000a81548173ffffffffffffffffffffffffffffffffffffffff021916908373ffffffffffffffffffffffffffffffffffffffff1602179055506000600260008473ffffffffffffffffffffffffffffffffffffffff1673ffffffffffffffffffffffffffffffffffffffff16815260200190815260200160002060006101000a81548160ff021916908360018111156105a3576105a26108a6565b5b021790555060019050919050565b6001600260008373ffffffffffffffffffffffffffffffffffffffff1673ffffffffffffffffffffffffffffffffffffffff16815260200190815260200160002060006101000a81548160ff02191690836001811115610614576106136108a6565b5b02179055506001819080600181540180825580915050600190039060005260206000200160009091909190916101000a81548173ffffffffffffffffffffffffffffffffffffffff021916908373ffffffffffffffffffffffffffffffffffffffff16021790555050565b600080fd5b6000819050919050565b61069781610684565b81146106a257600080fd5b50565b6000813590506106b48161068e565b92915050565b6000602082840312156106d0576106cf61067f565b5b60006106de848285016106a5565b91505092915050565b600073ffffffffffffffffffffffffffffffffffffffff82169050919050565b6000610712826106e7565b9050919050565b61072281610707565b82525050565b600060208201905061073d6000830184610719565b92915050565b600081519050919050565b600082825260208201905092915050565b6000819050602082019050919050565b61077881610707565b82525050565b600061078a838361076f565b60208301905092915050565b6000602082019050919050565b60006107ae82610743565b6107b8818561074e565b93506107c38361075f565b8060005b838110156107f45781516107db888261077e565b97506107e683610796565b9250506001810190506107c7565b5085935050505092915050565b6000602082019050818103600083015261081b81846107a3565b905092915050565b61082c81610684565b82525050565b60006020820190506108476000830184610823565b92915050565b61085681610707565b811461086157600080fd5b50565b6000813590506108738161084d565b92915050565b60006020828403121561088f5761088e61067f565b5b600061089d84828501610864565b91505092915050565b7f4e487b7100000000000000000000000000000000000000000000000000000000600052602160045260246000fd5b600281106108e6576108e56108a6565b5b50565b60008190506108f7826108d5565b919050565b6000610907826108e9565b9050919050565b610917816108fc565b82525050565b6000602082019050610932600083018461090e565b92915050565b60008115159050919050565b61094d81610938565b82525050565b60006020820190506109686000830184610944565b92915050565b7f4e487b7100000000000000000000000000000000000000000000000000000000600052603260045260246000fdfea2646970667358221220f1ebaaaa201362cefe773a1f66c3f19330d5bf7d714c546d86619bca7144275564736f6c63430008100033",
  "immutableReferences": {},
  "source": "// SPDX-License-Identifier: GPL-3.0\npragma solidity ^0.8.0;\npragma experimental ABIEncoderV2;\n\n\ncontract ContractRepo {\n    address[] public contractAddress;\n    address[] public completedContracts; //used for quick access to Completed Contracts\n\n    enum ContractStatus {\n        onGoing,\n        complete\n    }\n\n    mapping (address=>ContractStatus) public contractMapping;\n\n\n    function addToContracts(address contractToAppend) public returns (bool) {\n        contractAddress.push(contractToAppend);\n        contractMapping[contractToAppend] = ContractStatus.onGoing;\n        return true;\n    }\n\n    function getAllContracts() public view returns (address[] memory) {\n        return contractAddress;\n    }\n\n    function getContractCount() public view returns (uint256) {\n        return contractAddress.length;\n    }\n\n    function getOngoingContracts(uint256 index) public view returns (address) {\n        //loop at web3\n        if (index > contractAddress.length) revert();\n        if (contractMapping[contractAddress[index]] == ContractStatus.onGoing) {\n            return contractAddress[index]; \n        }\n        revert();\n    }\n\n    function getCompletedContracts() public view returns (address[] memory) {\n        return completedContracts;\n    }\n\n    function updateContractStatusToComplete(address _contractAddress) public {\n        contractMapping[_contractAddress] = ContractStatus.complete;\n        completedContracts.push(_contractAddress);\n    }\n\n}",
  "sourcePath": "/home/aniketdatar/Desktop/Project/tendersystem-blockchain/contracts/ContractRepo.sol",
  "compiler": {
    "name": "solc",
    "version": "0.8.16+commit.07a7930e.Emscripten.clang"
  },
  "schemaVersion": "3.4.9",
  "updatedAt": "2023-02-06T17:22:58.829Z",
  "networkType": "ethereum",
  "devdoc": {
    "kind": "dev",
    "methods": {},
    "version": 1
  },
  "userdoc": {
    "kind": "user",
    "methods": {},
    "version": 1
  }
}