{
  "contractName": "ContractorRepo",
  "abi": [
    {
      "inputs": [
        {
          "internalType": "address",
          "name": "",
          "type": "address"
        }
      ],
      "name": "walletAddressToNode",
      "outputs": [
        {
          "internalType": "address",
          "name": "",
          "type": "address"
        }
      ],
      "stateMutability": "view",
      "type": "function",
      "constant": true
    },
    {
      "inputs": [
        {
          "internalType": "address",
          "name": "walletAddress",
          "type": "address"
        },
        {
          "internalType": "address",
          "name": "nodeAddress",
          "type": "address"
        }
      ],
      "name": "newContractor",
      "outputs": [
        {
          "internalType": "bool",
          "name": "",
          "type": "bool"
        }
      ],
      "stateMutability": "nonpayable",
      "type": "function"
    },
    {
      "inputs": [
        {
          "internalType": "address",
          "name": "walletAddress",
          "type": "address"
        },
        {
          "internalType": "address",
          "name": "nodeAddress",
          "type": "address"
        }
      ],
      "name": "mapWalletAddressToNode",
      "outputs": [],
      "stateMutability": "nonpayable",
      "type": "function"
    },
    {
      "inputs": [
        {
          "internalType": "address",
          "name": "contractorAddress",
          "type": "address"
        },
        {
          "internalType": "address",
          "name": "verifierAddress",
          "type": "address"
        }
      ],
      "name": "verifyContractor",
      "outputs": [],
      "stateMutability": "nonpayable",
      "type": "function"
    },
    {
      "inputs": [],
      "name": "getVerifiedContractorsCount",
      "outputs": [
        {
          "internalType": "uint256",
          "name": "",
          "type": "uint256"
        }
      ],
      "stateMutability": "view",
      "type": "function",
      "constant": true
    },
    {
      "inputs": [],
      "name": "getVerifiedContractors",
      "outputs": [
        {
          "internalType": "address[]",
          "name": "",
          "type": "address[]"
        }
      ],
      "stateMutability": "view",
      "type": "function",
      "constant": true
    },
    {
      "inputs": [
        {
          "internalType": "address",
          "name": "contractorAddress",
          "type": "address"
        }
      ],
      "name": "getVerifier",
      "outputs": [
        {
          "internalType": "address",
          "name": "",
          "type": "address"
        }
      ],
      "stateMutability": "view",
      "type": "function",
      "constant": true
    },
    {
      "inputs": [],
      "name": "getContractors",
      "outputs": [
        {
          "internalType": "address[]",
          "name": "",
          "type": "address[]"
        }
      ],
      "stateMutability": "view",
      "type": "function",
      "constant": true
    },
    {
      "inputs": [],
      "name": "getContractorsCount",
      "outputs": [
        {
          "internalType": "uint256",
          "name": "",
          "type": "uint256"
        }
      ],
      "stateMutability": "view",
      "type": "function",
      "constant": true
    },
    {
      "inputs": [
        {
          "internalType": "address",
          "name": "contractorAddress",
          "type": "address"
        }
      ],
      "name": "getVerificationStatus",
      "outputs": [
        {
          "internalType": "bool",
          "name": "",
          "type": "bool"
        }
      ],
      "stateMutability": "view",
      "type": "function",
      "constant": true
    },
    {
      "inputs": [
        {
          "internalType": "uint256",
          "name": "index",
          "type": "uint256"
        }
      ],
      "name": "getUnverifiedContractors",
      "outputs": [
        {
          "internalType": "address",
          "name": "",
          "type": "address"
        }
      ],
      "stateMutability": "view",
      "type": "function",
      "constant": true
    }
  ],
  "bytecode": "0x608060405234801561001057600080fd5b50610af7806100206000396000f3fe608060405234801561001057600080fd5b50600436106100a95760003560e01c80636c542bc7116100715780636c542bc7146101785780637844adae14610194578063cac9986d146101c4578063d4450661146101e2578063e544a7fd14610200578063f50c75d514610230576100a9565b8063059ce95d146100ae57806310163b67146100de57806323ff85f9146100fc578063492e4475146101185780636103681a14610148575b600080fd5b6100c860048036038101906100c39190610858565b61024e565b6040516100d59190610894565b60405180910390f35b6100e66102b7565b6040516100f3919061096d565b60405180910390f35b6101166004803603810190610111919061098f565b610345565b005b610132600480360381019061012d919061098f565b6103c7565b60405161013f91906109ea565b60405180910390f35b610162600480360381019061015d9190610858565b610497565b60405161016f91906109ea565b60405180910390f35b610192600480360381019061018d919061098f565b6104ed565b005b6101ae60048036038101906101a99190610a3b565b61062a565b6040516101bb9190610894565b60405180910390f35b6101cc61071b565b6040516101d99190610a77565b60405180910390f35b6101ea610727565b6040516101f7919061096d565b60405180910390f35b61021a60048036038101906102159190610858565b6107b5565b6040516102279190610894565b60405180910390f35b6102386107e8565b6040516102459190610a77565b60405180910390f35b6000600360008373ffffffffffffffffffffffffffffffffffffffff1673ffffffffffffffffffffffffffffffffffffffff16815260200190815260200160002060009054906101000a900473ffffffffffffffffffffffffffffffffffffffff169050919050565b6060600080548060200260200160405190810160405280929190818152602001828054801561033b57602002820191906000526020600020905b8160009054906101000a900473ffffffffffffffffffffffffffffffffffffffff1673ffffffffffffffffffffffffffffffffffffffff16815260200190600101908083116102f1575b5050505050905090565b80600460008473ffffffffffffffffffffffffffffffffffffffff1673ffffffffffffffffffffffffffffffffffffffff16815260200190815260200160002060006101000a81548173ffffffffffffffffffffffffffffffffffffffff021916908373ffffffffffffffffffffffffffffffffffffffff1602179055505050565b600080829080600181540180825580915050600190039060005260206000200160009091909190916101000a81548173ffffffffffffffffffffffffffffffffffffffff021916908373ffffffffffffffffffffffffffffffffffffffff1602179055506000600260008473ffffffffffffffffffffffffffffffffffffffff1673ffffffffffffffffffffffffffffffffffffffff16815260200190815260200160002060006101000a81548160ff02191690831515021790555061048d8383610345565b6001905092915050565b6000600260008373ffffffffffffffffffffffffffffffffffffffff1673ffffffffffffffffffffffffffffffffffffffff16815260200190815260200160002060009054906101000a900460ff169050919050565b6001829080600181540180825580915050600190039060005260206000200160009091909190916101000a81548173ffffffffffffffffffffffffffffffffffffffff021916908373ffffffffffffffffffffffffffffffffffffffff1602179055506001600260008473ffffffffffffffffffffffffffffffffffffffff1673ffffffffffffffffffffffffffffffffffffffff16815260200190815260200160002060006101000a81548160ff02191690831515021790555080600360008473ffffffffffffffffffffffffffffffffffffffff1673ffffffffffffffffffffffffffffffffffffffff16815260200190815260200160002060006101000a81548173ffffffffffffffffffffffffffffffffffffffff021916908373ffffffffffffffffffffffffffffffffffffffff1602179055505050565b6000808054905082111561063d57600080fd5b6002600080848154811061065457610653610a92565b5b9060005260206000200160009054906101000a900473ffffffffffffffffffffffffffffffffffffffff1673ffffffffffffffffffffffffffffffffffffffff1673ffffffffffffffffffffffffffffffffffffffff16815260200190815260200160002060009054906101000a900460ff1661071157600082815481106106df576106de610a92565b5b9060005260206000200160009054906101000a900473ffffffffffffffffffffffffffffffffffffffff169050610716565b600080fd5b919050565b60008080549050905090565b606060018054806020026020016040519081016040528092919081815260200182805480156107ab57602002820191906000526020600020905b8160009054906101000a900473ffffffffffffffffffffffffffffffffffffffff1673ffffffffffffffffffffffffffffffffffffffff1681526020019060010190808311610761575b5050505050905090565b60046020528060005260406000206000915054906101000a900473ffffffffffffffffffffffffffffffffffffffff1681565b6000600180549050905090565b600080fd5b600073ffffffffffffffffffffffffffffffffffffffff82169050919050565b6000610825826107fa565b9050919050565b6108358161081a565b811461084057600080fd5b50565b6000813590506108528161082c565b92915050565b60006020828403121561086e5761086d6107f5565b5b600061087c84828501610843565b91505092915050565b61088e8161081a565b82525050565b60006020820190506108a96000830184610885565b92915050565b600081519050919050565b600082825260208201905092915050565b6000819050602082019050919050565b6108e48161081a565b82525050565b60006108f683836108db565b60208301905092915050565b6000602082019050919050565b600061091a826108af565b61092481856108ba565b935061092f836108cb565b8060005b8381101561096057815161094788826108ea565b975061095283610902565b925050600181019050610933565b5085935050505092915050565b60006020820190508181036000830152610987818461090f565b905092915050565b600080604083850312156109a6576109a56107f5565b5b60006109b485828601610843565b92505060206109c585828601610843565b9150509250929050565b60008115159050919050565b6109e4816109cf565b82525050565b60006020820190506109ff60008301846109db565b92915050565b6000819050919050565b610a1881610a05565b8114610a2357600080fd5b50565b600081359050610a3581610a0f565b92915050565b600060208284031215610a5157610a506107f5565b5b6000610a5f84828501610a26565b91505092915050565b610a7181610a05565b82525050565b6000602082019050610a8c6000830184610a68565b92915050565b7f4e487b7100000000000000000000000000000000000000000000000000000000600052603260045260246000fdfea2646970667358221220203828dbe4eb6d9688a470fa0b642aa7da2e49378b2b190afcb030a86dbad75264736f6c63430008100033",
  "immutableReferences": {},
  "source": "// SPDX-License-Identifier: GPL-3.0\npragma solidity ^0.8.0;\npragma experimental ABIEncoderV2;\n\n\ncontract ContractorRepo {\n    address[] contractors; //all contractors verified + unverified\n    address[] verifiedContractors;\n    //address[] unverifiedContractors;\n    \n    mapping (address=>bool) verifiedStatus; //false => unverified, true => verified\n    mapping (address=>address) contratorToVerifier;\n    mapping (address=>address) public walletAddressToNode;\n\n    function newContractor(address walletAddress, address nodeAddress) public returns (bool) {\n        contractors.push(nodeAddress);\n        verifiedStatus[nodeAddress] = false;\n        mapWalletAddressToNode(walletAddress,nodeAddress);\n        return true;\n    }\n\n    function mapWalletAddressToNode(address walletAddress, address nodeAddress) public {\n        walletAddressToNode[walletAddress] = nodeAddress;\n    }\n\n    function verifyContractor(address contractorAddress, address verifierAddress) public {\n        verifiedContractors.push(contractorAddress);\n        verifiedStatus[contractorAddress] = true;\n        contratorToVerifier[contractorAddress] = verifierAddress;\n    }\n\n    function getVerifiedContractorsCount() public view returns (uint256) {\n        return verifiedContractors.length;\n    }\n        \n    function getVerifiedContractors() public view returns (address[] memory) {\n        return verifiedContractors;\n    }\n\n    function getVerifier(address contractorAddress) public view returns (address) {\n        return contratorToVerifier[contractorAddress];\n    }\n\n    function getContractors() public view returns (address[] memory) {\n        return contractors;\n    }\n\n    function getContractorsCount() public view returns (uint256) {\n        return contractors.length;\n    }\n\n    function getVerificationStatus(address contractorAddress) public view returns (bool) {\n        return verifiedStatus[contractorAddress];\n    }\n    \n    function getUnverifiedContractors(uint256 index) public view returns (address) {\n        //loop at web3\n        if (index > contractors.length) revert();\n        if (!verifiedStatus[contractors[index]]) {\n            return contractors[index]; \n        }\n        revert();\n    }\n}",
  "sourcePath": "/home/aniketdatar/Desktop/Project/tendersystem-blockchain/contracts/ContractorRepo.sol",
  "compiler": {
    "name": "solc",
    "version": "0.8.16+commit.07a7930e.Emscripten.clang"
  },
  "schemaVersion": "3.4.9",
  "updatedAt": "2023-02-06T17:22:58.831Z",
  "networkType": "ethereum",
  "devdoc": {
    "kind": "dev",
    "methods": {},
    "version": 1
  },
  "userdoc": {
    "kind": "user",
    "methods": {},
    "version": 1
  }
}