{
  "contractName": "FactoryTender",
  "abi": [
    {
      "inputs": [
        {
          "internalType": "address",
          "name": "governmentOfficerAddress",
          "type": "address"
        },
        {
          "internalType": "string",
          "name": "tenderName",
          "type": "string"
        },
        {
          "internalType": "string",
          "name": "tenderId",
          "type": "string"
        },
        {
          "internalType": "uint256",
          "name": "bidSubmissionClosingDate",
          "type": "uint256"
        },
        {
          "internalType": "uint256",
          "name": "bidOpeningDate",
          "type": "uint256"
        },
        {
          "internalType": "uint256",
          "name": "covers",
          "type": "uint256"
        },
        {
          "internalType": "string[]",
          "name": "clauses",
          "type": "string[]"
        },
        {
          "internalType": "string[]",
          "name": "taskName",
          "type": "string[]"
        },
        {
          "internalType": "uint256[]",
          "name": "taskDays",
          "type": "uint256[]"
        },
        {
          "internalType": "string[]",
          "name": "constraints",
          "type": "string[]"
        }
      ],
      "name": "createTender",
      "outputs": [
        {
          "internalType": "contract Tender",
          "name": "",
          "type": "address"
        }
      ],
      "stateMutability": "nonpayable",
      "type": "function"
    }
  ],
  "bytecode": "0x608060405234801561001057600080fd5b50613912806100206000396000f3fe608060405234801561001057600080fd5b506004361061002b5760003560e01c80637db449b214610030575b600080fd5b61004a6004803603810190610045919061058d565b610060565b6040516100579190610773565b60405180910390f35b60008060405161006f906101e9565b604051809103906000f08015801561008b573d6000803e3d6000fd5b5090508073ffffffffffffffffffffffffffffffffffffffff1663d706f1c98d8d8d8d8d8d6040518763ffffffff1660e01b81526004016100d19695949392919061082b565b600060405180830381600087803b1580156100eb57600080fd5b505af11580156100ff573d6000803e3d6000fd5b505050508073ffffffffffffffffffffffffffffffffffffffff166340588921878787876040518563ffffffff1660e01b81526004016101429493929190610a64565b600060405180830381600087803b15801561015c57600080fd5b505af1158015610170573d6000803e3d6000fd5b505050506000819080600181540180825580915050600190039060005260206000200160009091909190916101000a81548173ffffffffffffffffffffffffffffffffffffffff021916908373ffffffffffffffffffffffffffffffffffffffff160217905550809150509a9950505050505050505050565b612e1780610ac683390190565b6000604051905090565b600080fd5b600080fd5b600073ffffffffffffffffffffffffffffffffffffffff82169050919050565b60006102358261020a565b9050919050565b6102458161022a565b811461025057600080fd5b50565b6000813590506102628161023c565b92915050565b600080fd5b600080fd5b6000601f19601f8301169050919050565b7f4e487b7100000000000000000000000000000000000000000000000000000000600052604160045260246000fd5b6102bb82610272565b810181811067ffffffffffffffff821117156102da576102d9610283565b5b80604052505050565b60006102ed6101f6565b90506102f982826102b2565b919050565b600067ffffffffffffffff82111561031957610318610283565b5b61032282610272565b9050602081019050919050565b82818337600083830152505050565b600061035161034c846102fe565b6102e3565b90508281526020810184848401111561036d5761036c61026d565b5b61037884828561032f565b509392505050565b600082601f83011261039557610394610268565b5b81356103a584826020860161033e565b91505092915050565b6000819050919050565b6103c1816103ae565b81146103cc57600080fd5b50565b6000813590506103de816103b8565b92915050565b600067ffffffffffffffff8211156103ff576103fe610283565b5b602082029050602081019050919050565b600080fd5b6000610428610423846103e4565b6102e3565b9050808382526020820190506020840283018581111561044b5761044a610410565b5b835b8181101561049257803567ffffffffffffffff8111156104705761046f610268565b5b80860161047d8982610380565b8552602085019450505060208101905061044d565b5050509392505050565b600082601f8301126104b1576104b0610268565b5b81356104c1848260208601610415565b91505092915050565b600067ffffffffffffffff8211156104e5576104e4610283565b5b602082029050602081019050919050565b6000610509610504846104ca565b6102e3565b9050808382526020820190506020840283018581111561052c5761052b610410565b5b835b81811015610555578061054188826103cf565b84526020840193505060208101905061052e565b5050509392505050565b600082601f83011261057457610573610268565b5b81356105848482602086016104f6565b91505092915050565b6000806000806000806000806000806101408b8d0312156105b1576105b0610200565b5b60006105bf8d828e01610253565b9a505060208b013567ffffffffffffffff8111156105e0576105df610205565b5b6105ec8d828e01610380565b99505060408b013567ffffffffffffffff81111561060d5761060c610205565b5b6106198d828e01610380565b985050606061062a8d828e016103cf565b975050608061063b8d828e016103cf565b96505060a061064c8d828e016103cf565b95505060c08b013567ffffffffffffffff81111561066d5761066c610205565b5b6106798d828e0161049c565b94505060e08b013567ffffffffffffffff81111561069a57610699610205565b5b6106a68d828e0161049c565b9350506101008b013567ffffffffffffffff8111156106c8576106c7610205565b5b6106d48d828e0161055f565b9250506101208b013567ffffffffffffffff8111156106f6576106f5610205565b5b6107028d828e0161049c565b9150509295989b9194979a5092959850565b6000819050919050565b600061073961073461072f8461020a565b610714565b61020a565b9050919050565b600061074b8261071e565b9050919050565b600061075d82610740565b9050919050565b61076d81610752565b82525050565b60006020820190506107886000830184610764565b92915050565b6107978161022a565b82525050565b600081519050919050565b600082825260208201905092915050565b60005b838110156107d75780820151818401526020810190506107bc565b60008484015250505050565b60006107ee8261079d565b6107f881856107a8565b93506108088185602086016107b9565b61081181610272565b840191505092915050565b610825816103ae565b82525050565b600060c082019050610840600083018961078e565b818103602083015261085281886107e3565b9050818103604083015261086681876107e3565b9050610875606083018661081c565b610882608083018561081c565b61088f60a083018461081c565b979650505050505050565b600081519050919050565b600082825260208201905092915050565b6000819050602082019050919050565b600082825260208201905092915050565b60006108e28261079d565b6108ec81856108c6565b93506108fc8185602086016107b9565b61090581610272565b840191505092915050565b600061091c83836108d7565b905092915050565b6000602082019050919050565b600061093c8261089a565b61094681856108a5565b935083602082028501610958856108b6565b8060005b8581101561099457848403895281516109758582610910565b945061098083610924565b925060208a0199505060018101905061095c565b50829750879550505050505092915050565b600081519050919050565b600082825260208201905092915050565b6000819050602082019050919050565b6109db816103ae565b82525050565b60006109ed83836109d2565b60208301905092915050565b6000602082019050919050565b6000610a11826109a6565b610a1b81856109b1565b9350610a26836109c2565b8060005b83811015610a57578151610a3e88826109e1565b9750610a49836109f9565b925050600181019050610a2a565b5085935050505092915050565b60006080820190508181036000830152610a7e8187610931565b90508181036020830152610a928186610931565b90508181036040830152610aa68185610a06565b90508181036060830152610aba8184610931565b90509594505050505056fe608060405234801561001057600080fd5b50612df7806100206000396000f3fe608060405234801561001057600080fd5b50600436106101735760003560e01c80637ca4a879116100de578063ca6009be11610097578063e959c7b911610071578063e959c7b914610482578063e979c9b8146104a0578063ec12b199146104d2578063fed4a326146104f357610173565b8063ca6009be1461041a578063cddab28b1461044a578063d706f1c91461046657610173565b80637ca4a8791461035257806395121ee1146103705780639b679bae1461038e578063b3c4c5bd146103aa578063c08cc02d146103c8578063c7f758a8146103e657610173565b8063482a77a611610130578063482a77a6146102515780634a53deb414610281578063528e830a146102b15780635644e44c146102cd57806356554d82146102fd5780637376ade21461032057610173565b8063041f624f14610178578063137396e4146101a857806334650fad146101c657806336e18778146101f9578063405889211461021757806346d722e714610233575b600080fd5b610192600480360381019061018d9190611c52565b610511565b60405161019f9190611d0f565b60405180910390f35b6101b06105bd565b6040516101bd9190611d40565b60405180910390f35b6101e060048036038101906101db9190611c52565b6105c3565b6040516101f094939291906120ae565b60405180910390f35b61020161094a565b60405161020e9190611d0f565b60405180910390f35b610231600480360381019061022c91906123e6565b6109d8565b005b61023b610a3a565b60405161024891906124bd565b60405180910390f35b61026b60048036038101906102669190611c52565b610a5e565b6040516102789190611d40565b60405180910390f35b61029b60048036038101906102969190611c52565b610a82565b6040516102a89190611d0f565b60405180910390f35b6102cb60048036038101906102c69190612504565b610b2e565b005b6102e760048036038101906102e29190612531565b610b99565b6040516102f49190612607565b60405180910390f35b610305610d8c565b60405161031796959493929190612622565b60405180910390f35b61033a60048036038101906103359190611c52565b610ef1565b60405161034993929190612691565b60405180910390f35b61035a6111f9565b6040516103679190611d40565b60405180910390f35b6103786111ff565b6040516103859190611d40565b60405180910390f35b6103a860048036038101906103a39190611c52565b611209565b005b6103b261122c565b6040516103bf9190611d40565b60405180910390f35b6103d0611232565b6040516103dd9190611d40565b60405180910390f35b61040060048036038101906103fb9190611c52565b61123f565b60405161041195949392919061274d565b60405180910390f35b610434600480360381019061042f9190611c52565b61147a565b6040516104419190611d0f565b60405180910390f35b610464600480360381019061045f9190612504565b611526565b005b610480600480360381019061047b91906127ae565b611591565b005b61048a611616565b6040516104979190611d0f565b60405180910390f35b6104ba60048036038101906104b59190611c52565b6116a4565b6040516104c993929190612873565b60405180910390f35b6104da61170b565b6040516104ea94939291906128aa565b60405180910390f35b6104fb6119f2565b6040516105089190611d0f565b60405180910390f35b6009818154811061052157600080fd5b90600052602060002001600091509050805461053c9061293a565b80601f01602080910402602001604051908101604052809291908181526020018280546105689061293a565b80156105b55780601f1061058a576101008083540402835291602001916105b5565b820191906000526020600020905b81548152906001019060200180831161059857829003601f168201915b505050505081565b60055481565b6060806000606060006060600060028111156105e2576105e16126d6565b5b600b88815481106105f6576105f561296b565b5b906000526020600020906006020160050160009054906101000a900460ff166002811115610627576106266126d6565b5b0361074657600d600b88815481106106425761064161296b565b5b906000526020600020906006020160040190806001815401808255809150506001900390600052602060002001600090919091909150908054610686929190611a84565b50600b878154811061069b5761069a61296b565b5b906000526020600020906006020160000160009054906101000a900473ffffffffffffffffffffffffffffffffffffffff169150600b87815481106106e3576106e261296b565b5b906000526020600020906006020160020180548060200260200160405190810160405280929190818152602001828054801561073e57602002820191906000526020600020905b81548152602001906001019080831161072a575b505050505090505b6009600d838383805480602002602001604051908101604052809291908181526020016000905b8282101561081957838290600052602060002001805461078c9061293a565b80601f01602080910402602001604051908101604052809291908181526020018280546107b89061293a565b80156108055780601f106107da57610100808354040283529160200191610805565b820191906000526020600020905b8154815290600101906020018083116107e857829003601f168201915b50505050508152602001906001019061076d565b50505050935082805480602002602001604051908101604052809291908181526020016000905b8282101561093357838290600052602060002001805480602002602001604051908101604052809291908181526020016000905b828210156109205783829060005260206000200180546108939061293a565b80601f01602080910402602001604051908101604052809291908181526020018280546108bf9061293a565b801561090c5780601f106108e15761010080835404028352916020019161090c565b820191906000526020600020905b8154815290600101906020018083116108ef57829003601f168201915b505050505081526020019060010190610874565b5050505081526020019060010190610840565b505050509250955095509550955050509193509193565b600280546109579061293a565b80601f01602080910402602001604051908101604052809291908181526020018280546109839061293a565b80156109d05780601f106109a5576101008083540402835291602001916109d0565b820191906000526020600020905b8154815290600101906020018083116109b357829003601f168201915b505050505081565b83600690805190602001906109ee929190611ae1565b508260079080519060200190610a05929190611ae1565b508160089080519060200190610a1c929190611b3a565b508060099080519060200190610a33929190611ae1565b5050505050565b60008054906101000a900473ffffffffffffffffffffffffffffffffffffffff1681565b60088181548110610a6e57600080fd5b906000526020600020016000915090505481565b60078181548110610a9257600080fd5b906000526020600020016000915090508054610aad9061293a565b80601f0160208091040260200160405190810160405280929190818152602001828054610ad99061293a565b8015610b265780601f10610afb57610100808354040283529160200191610b26565b820191906000526020600020905b815481529060010190602001808311610b0957829003601f168201915b505050505081565b6000600c60008373ffffffffffffffffffffffffffffffffffffffff1673ffffffffffffffffffffffffffffffffffffffff16815260200190815260200160002060006101000a81548160ff02191690836002811115610b9157610b906126d6565b5b021790555050565b600080600b8054905090506000600b8281548110610bba57610bb961296b565b5b90600052602060002090600602019050868160000160006101000a81548173ffffffffffffffffffffffffffffffffffffffff021916908373ffffffffffffffffffffffffffffffffffffffff16021790555060005b8651811015610ce857868181518110610c2c57610c2b61296b565b5b6020026020010151826001018281548110610c4a57610c4961296b565b5b906000526020600020019081610c609190612b46565b50858181518110610c7457610c7361296b565b5b6020026020010151826002018281548110610c9257610c9161296b565b5b9060005260206000200181905550858181518110610cb357610cb261296b565b5b6020026020010151826003016000828254610cce9190612c47565b925050819055508080610ce090612c7b565b915050610c10565b5060005b8451811015610d5057848181518110610d0857610d0761296b565b5b6020026020010151826004018281548110610d2657610d2561296b565b5b906000526020600020019081610d3c9190612b46565b508080610d4890612c7b565b915050610cec565b5060018160050160006101000a81548160ff02191690836002811115610d7957610d786126d6565b5b0217905550600192505050949350505050565b600060608060008060008060009054906101000a900473ffffffffffffffffffffffffffffffffffffffff1660016002600354600454600554848054610dd19061293a565b80601f0160208091040260200160405190810160405280929190818152602001828054610dfd9061293a565b8015610e4a5780601f10610e1f57610100808354040283529160200191610e4a565b820191906000526020600020905b815481529060010190602001808311610e2d57829003601f168201915b50505050509450838054610e5d9061293a565b80601f0160208091040260200160405190810160405280929190818152602001828054610e899061293a565b8015610ed65780601f10610eab57610100808354040283529160200191610ed6565b820191906000526020600020905b815481529060010190602001808311610eb957829003601f168201915b50505050509350955095509550955095509550909192939495565b60608060008060016002811115610f0b57610f0a6126d6565b5b600b8681548110610f1f57610f1e61296b565b5b906000526020600020906006020160050160009054906101000a900460ff166002811115610f5057610f4f6126d6565b5b03610ff957600d600b8681548110610f6b57610f6a61296b565b5b906000526020600020906006020160040190806001815401808255809150506001900390600052602060002001600090919091909150908054610faf929190611a84565b50600b8581548110610fc457610fc361296b565b5b906000526020600020906006020160000160009054906101000a900473ffffffffffffffffffffffffffffffffffffffff1690505b6009600d8282805480602002602001604051908101604052809291908181526020016000905b828210156110cb57838290600052602060002001805461103e9061293a565b80601f016020809104026020016040519081016040528092919081815260200182805461106a9061293a565b80156110b75780601f1061108c576101008083540402835291602001916110b7565b820191906000526020600020905b81548152906001019060200180831161109a57829003601f168201915b50505050508152602001906001019061101f565b50505050925081805480602002602001604051908101604052809291908181526020016000905b828210156111e557838290600052602060002001805480602002602001604051908101604052809291908181526020016000905b828210156111d25783829060005260206000200180546111459061293a565b80601f01602080910402602001604051908101604052809291908181526020018280546111719061293a565b80156111be5780601f10611193576101008083540402835291602001916111be565b820191906000526020600020905b8154815290600101906020018083116111a157829003601f168201915b505050505081526020019060010190611126565b50505050815260200190600101906110f2565b505050509150935093509350509193909250565b60035481565b6000600354905090565b6000811415801561121c57506000600a54145b156112295780600a819055505b50565b60045481565b6000600b80549050905090565b6000806060806000600b8054905086111561125957600080fd5b600b868154811061126d5761126c61296b565b5b906000526020600020906006020160000160009054906101000a900473ffffffffffffffffffffffffffffffffffffffff16600b87815481106112b3576112b261296b565b5b906000526020600020906006020160030154600b88815481106112d9576112d861296b565b5b9060005260206000209060060201600101600b89815481106112fe576112fd61296b565b5b9060005260206000209060060201600201600b8a815481106113235761132261296b565b5b906000526020600020906006020160050160009054906101000a900460ff1682805480602002602001604051908101604052809291908181526020016000905b8282101561140f5783829060005260206000200180546113829061293a565b80601f01602080910402602001604051908101604052809291908181526020018280546113ae9061293a565b80156113fb5780601f106113d0576101008083540402835291602001916113fb565b820191906000526020600020905b8154815290600101906020018083116113de57829003601f168201915b505050505081526020019060010190611363565b5050505092508180548060200260200160405190810160405280929190818152602001828054801561146057602002820191906000526020600020905b81548152602001906001019080831161144c575b505050505091509450945094509450945091939590929450565b6006818154811061148a57600080fd5b9060005260206000200160009150905080546114a59061293a565b80601f01602080910402602001604051908101604052809291908181526020018280546114d19061293a565b801561151e5780601f106114f35761010080835404028352916020019161151e565b820191906000526020600020905b81548152906001019060200180831161150157829003601f168201915b505050505081565b6002600c60008373ffffffffffffffffffffffffffffffffffffffff1673ffffffffffffffffffffffffffffffffffffffff16815260200190815260200160002060006101000a81548160ff02191690836002811115611589576115886126d6565b5b021790555050565b856000806101000a81548173ffffffffffffffffffffffffffffffffffffffff021916908373ffffffffffffffffffffffffffffffffffffffff16021790555084600190816115e09190612b46565b5083600290816115f09190612b46565b508260038190555081600481905550806005819055506000600a81905550505050505050565b600180546116239061293a565b80601f016020809104026020016040519081016040528092919081815260200182805461164f9061293a565b801561169c5780601f106116715761010080835404028352916020019161169c565b820191906000526020600020905b81548152906001019060200180831161167f57829003601f168201915b505050505081565b600b81815481106116b457600080fd5b90600052602060002090600602016000915090508060000160009054906101000a900473ffffffffffffffffffffffffffffffffffffffff16908060030154908060050160009054906101000a900460ff16905083565b606080606080600660076008600983805480602002602001604051908101604052809291908181526020016000905b828210156117e65783829060005260206000200180546117599061293a565b80601f01602080910402602001604051908101604052809291908181526020018280546117859061293a565b80156117d25780601f106117a7576101008083540402835291602001916117d2565b820191906000526020600020905b8154815290600101906020018083116117b557829003601f168201915b50505050508152602001906001019061173a565b50505050935082805480602002602001604051908101604052809291908181526020016000905b828210156118b957838290600052602060002001805461182c9061293a565b80601f01602080910402602001604051908101604052809291908181526020018280546118589061293a565b80156118a55780601f1061187a576101008083540402835291602001916118a5565b820191906000526020600020905b81548152906001019060200180831161188857829003601f168201915b50505050508152602001906001019061180d565b5050505092508180548060200260200160405190810160405280929190818152602001828054801561190a57602002820191906000526020600020905b8154815260200190600101908083116118f6575b5050505050915080805480602002602001604051908101604052809291908181526020016000905b828210156119de5783829060005260206000200180546119519061293a565b80601f016020809104026020016040519081016040528092919081815260200182805461197d9061293a565b80156119ca5780601f1061199f576101008083540402835291602001916119ca565b820191906000526020600020905b8154815290600101906020018083116119ad57829003601f168201915b505050505081526020019060010190611932565b505050509050935093509350935090919293565b606060018054611a019061293a565b80601f0160208091040260200160405190810160405280929190818152602001828054611a2d9061293a565b8015611a7a5780601f10611a4f57610100808354040283529160200191611a7a565b820191906000526020600020905b815481529060010190602001808311611a5d57829003601f168201915b5050505050905090565b828054828255906000526020600020908101928215611ad05760005260206000209182015b82811115611acf5782829081611abf9190612cd9565b5091600101919060010190611aa9565b5b509050611add9190611b87565b5090565b828054828255906000526020600020908101928215611b29579160200282015b82811115611b28578251829081611b189190612b46565b5091602001919060010190611b01565b5b509050611b369190611b87565b5090565b828054828255906000526020600020908101928215611b76579160200282015b82811115611b75578251825591602001919060010190611b5a565b5b509050611b839190611bab565b5090565b5b80821115611ba75760008181611b9e9190611bc8565b50600101611b88565b5090565b5b80821115611bc4576000816000905550600101611bac565b5090565b508054611bd49061293a565b6000825580601f10611be65750611c05565b601f016020900490600052602060002090810190611c049190611bab565b5b50565b6000604051905090565b600080fd5b600080fd5b6000819050919050565b611c2f81611c1c565b8114611c3a57600080fd5b50565b600081359050611c4c81611c26565b92915050565b600060208284031215611c6857611c67611c12565b5b6000611c7684828501611c3d565b91505092915050565b600081519050919050565b600082825260208201905092915050565b60005b83811015611cb9578082015181840152602081019050611c9e565b60008484015250505050565b6000601f19601f8301169050919050565b6000611ce182611c7f565b611ceb8185611c8a565b9350611cfb818560208601611c9b565b611d0481611cc5565b840191505092915050565b60006020820190508181036000830152611d298184611cd6565b905092915050565b611d3a81611c1c565b82525050565b6000602082019050611d556000830184611d31565b92915050565b600081519050919050565b600082825260208201905092915050565b6000819050602082019050919050565b600082825260208201905092915050565b6000611da382611c7f565b611dad8185611d87565b9350611dbd818560208601611c9b565b611dc681611cc5565b840191505092915050565b6000611ddd8383611d98565b905092915050565b6000602082019050919050565b6000611dfd82611d5b565b611e078185611d66565b935083602082028501611e1985611d77565b8060005b85811015611e555784840389528151611e368582611dd1565b9450611e4183611de5565b925060208a01995050600181019050611e1d565b50829750879550505050505092915050565b600081519050919050565b600082825260208201905092915050565b6000819050602082019050919050565b600082825260208201905092915050565b6000611eaf82611d5b565b611eb98185611e93565b935083602082028501611ecb85611d77565b8060005b85811015611f075784840389528151611ee88582611dd1565b9450611ef383611de5565b925060208a01995050600181019050611ecf565b50829750879550505050505092915050565b6000611f258383611ea4565b905092915050565b6000602082019050919050565b6000611f4582611e67565b611f4f8185611e72565b935083602082028501611f6185611e83565b8060005b85811015611f9d5784840389528151611f7e8582611f19565b9450611f8983611f2d565b925060208a01995050600181019050611f65565b50829750879550505050505092915050565b600073ffffffffffffffffffffffffffffffffffffffff82169050919050565b6000611fda82611faf565b9050919050565b611fea81611fcf565b82525050565b600081519050919050565b600082825260208201905092915050565b6000819050602082019050919050565b61202581611c1c565b82525050565b6000612037838361201c565b60208301905092915050565b6000602082019050919050565b600061205b82611ff0565b6120658185611ffb565b93506120708361200c565b8060005b838110156120a1578151612088888261202b565b975061209383612043565b925050600181019050612074565b5085935050505092915050565b600060808201905081810360008301526120c88187611df2565b905081810360208301526120dc8186611f3a565b90506120eb6040830185611fe1565b81810360608301526120fd8184612050565b905095945050505050565b600080fd5b7f4e487b7100000000000000000000000000000000000000000000000000000000600052604160045260246000fd5b61214582611cc5565b810181811067ffffffffffffffff821117156121645761216361210d565b5b80604052505050565b6000612177611c08565b9050612183828261213c565b919050565b600067ffffffffffffffff8211156121a3576121a261210d565b5b602082029050602081019050919050565b600080fd5b600080fd5b600067ffffffffffffffff8211156121d9576121d861210d565b5b6121e282611cc5565b9050602081019050919050565b82818337600083830152505050565b600061221161220c846121be565b61216d565b90508281526020810184848401111561222d5761222c6121b9565b5b6122388482856121ef565b509392505050565b600082601f83011261225557612254612108565b5b81356122658482602086016121fe565b91505092915050565b600061228161227c84612188565b61216d565b905080838252602082019050602084028301858111156122a4576122a36121b4565b5b835b818110156122eb57803567ffffffffffffffff8111156122c9576122c8612108565b5b8086016122d68982612240565b855260208501945050506020810190506122a6565b5050509392505050565b600082601f83011261230a57612309612108565b5b813561231a84826020860161226e565b91505092915050565b600067ffffffffffffffff82111561233e5761233d61210d565b5b602082029050602081019050919050565b600061236261235d84612323565b61216d565b90508083825260208201905060208402830185811115612385576123846121b4565b5b835b818110156123ae578061239a8882611c3d565b845260208401935050602081019050612387565b5050509392505050565b600082601f8301126123cd576123cc612108565b5b81356123dd84826020860161234f565b91505092915050565b60008060008060808587031215612400576123ff611c12565b5b600085013567ffffffffffffffff81111561241e5761241d611c17565b5b61242a878288016122f5565b945050602085013567ffffffffffffffff81111561244b5761244a611c17565b5b612457878288016122f5565b935050604085013567ffffffffffffffff81111561247857612477611c17565b5b612484878288016123b8565b925050606085013567ffffffffffffffff8111156124a5576124a4611c17565b5b6124b1878288016122f5565b91505092959194509250565b60006020820190506124d26000830184611fe1565b92915050565b6124e181611fcf565b81146124ec57600080fd5b50565b6000813590506124fe816124d8565b92915050565b60006020828403121561251a57612519611c12565b5b6000612528848285016124ef565b91505092915050565b6000806000806080858703121561254b5761254a611c12565b5b6000612559878288016124ef565b945050602085013567ffffffffffffffff81111561257a57612579611c17565b5b612586878288016122f5565b935050604085013567ffffffffffffffff8111156125a7576125a6611c17565b5b6125b3878288016123b8565b925050606085013567ffffffffffffffff8111156125d4576125d3611c17565b5b6125e0878288016122f5565b91505092959194509250565b60008115159050919050565b612601816125ec565b82525050565b600060208201905061261c60008301846125f8565b92915050565b600060c0820190506126376000830189611fe1565b81810360208301526126498188611cd6565b9050818103604083015261265d8187611cd6565b905061266c6060830186611d31565b6126796080830185611d31565b61268660a0830184611d31565b979650505050505050565b600060608201905081810360008301526126ab8186611df2565b905081810360208301526126bf8185611f3a565b90506126ce6040830184611fe1565b949350505050565b7f4e487b7100000000000000000000000000000000000000000000000000000000600052602160045260246000fd5b60038110612716576127156126d6565b5b50565b600081905061272782612705565b919050565b600061273782612719565b9050919050565b6127478161272c565b82525050565b600060a0820190506127626000830188611fe1565b61276f6020830187611d31565b81810360408301526127818186611df2565b905081810360608301526127958185612050565b90506127a4608083018461273e565b9695505050505050565b60008060008060008060c087890312156127cb576127ca611c12565b5b60006127d989828a016124ef565b965050602087013567ffffffffffffffff8111156127fa576127f9611c17565b5b61280689828a01612240565b955050604087013567ffffffffffffffff81111561282757612826611c17565b5b61283389828a01612240565b945050606061284489828a01611c3d565b935050608061285589828a01611c3d565b92505060a061286689828a01611c3d565b9150509295509295509295565b60006060820190506128886000830186611fe1565b6128956020830185611d31565b6128a2604083018461273e565b949350505050565b600060808201905081810360008301526128c48187611df2565b905081810360208301526128d88186611df2565b905081810360408301526128ec8185612050565b905081810360608301526129008184611df2565b905095945050505050565b7f4e487b7100000000000000000000000000000000000000000000000000000000600052602260045260246000fd5b6000600282049050600182168061295257607f821691505b6020821081036129655761296461290b565b5b50919050565b7f4e487b7100000000000000000000000000000000000000000000000000000000600052603260045260246000fd5b60008190508160005260206000209050919050565b60006020601f8301049050919050565b600082821b905092915050565b6000600883026129fc7fffffffffffffffffffffffffffffffffffffffffffffffffffffffffffffffff826129bf565b612a0686836129bf565b95508019841693508086168417925050509392505050565b6000819050919050565b6000612a43612a3e612a3984611c1c565b612a1e565b611c1c565b9050919050565b6000819050919050565b612a5d83612a28565b612a71612a6982612a4a565b8484546129cc565b825550505050565b600090565b612a86612a79565b612a91818484612a54565b505050565b5b81811015612ab557612aaa600082612a7e565b600181019050612a97565b5050565b601f821115612afa57612acb8161299a565b612ad4846129af565b81016020851015612ae3578190505b612af7612aef856129af565b830182612a96565b50505b505050565b600082821c905092915050565b6000612b1d60001984600802612aff565b1980831691505092915050565b6000612b368383612b0c565b9150826002028217905092915050565b612b4f82611c7f565b67ffffffffffffffff811115612b6857612b6761210d565b5b612b72825461293a565b612b7d828285612ab9565b600060209050601f831160018114612bb05760008415612b9e578287015190505b612ba88582612b2a565b865550612c10565b601f198416612bbe8661299a565b60005b82811015612be657848901518255600182019150602085019450602081019050612bc1565b86831015612c035784890151612bff601f891682612b0c565b8355505b6001600288020188555050505b505050505050565b7f4e487b7100000000000000000000000000000000000000000000000000000000600052601160045260246000fd5b6000612c5282611c1c565b9150612c5d83611c1c565b9250828201905080821115612c7557612c74612c18565b5b92915050565b6000612c8682611c1c565b91507fffffffffffffffffffffffffffffffffffffffffffffffffffffffffffffffff8203612cb857612cb7612c18565b5b600182019050919050565b600081549050612cd28161293a565b9050919050565b818103612ce7575050612dbf565b612cf082612cc3565b67ffffffffffffffff811115612d0957612d0861210d565b5b612d13825461293a565b612d1e828285612ab9565b6000601f831160018114612d4d5760008415612d3b578287015490505b612d458582612b2a565b865550612db8565b601f198416612d5b8761299a565b9650612d668661299a565b60005b82811015612d8e57848901548255600182019150600185019450602081019050612d69565b86831015612dab5784890154612da7601f891682612b0c565b8355505b6001600288020188555050505b5050505050505b56fea2646970667358221220ddf37a2f4f65c77f71adaed9182134ef4945bf436448cddf154f2aa9776de01f64736f6c63430008100033a2646970667358221220931eb6760734966f0e2e9880ae78d9596b42661fe50f771091ecc2097568204f64736f6c63430008100033",
  "immutableReferences": {},
  "source": "// SPDX-License-Identifier: GPL-3.0\npragma solidity ^0.8.0;\npragma experimental ABIEncoderV2;\n\nimport \"./Tender.sol\";\n\n\ncontract FactoryTender {\n    Tender[] allTenders;\n\n    function createTender(address governmentOfficerAddress, string memory tenderName, string memory tenderId, \n    //string organisationChain, string tenderRefNum,\n    uint bidSubmissionClosingDate, uint bidOpeningDate, uint covers, string[] memory clauses,\n    string[] memory taskName, uint[] memory taskDays, \n    string[] memory constraints) public returns (Tender) {\n        Tender newTender = new Tender();\n        newTender.setTenderBasic(governmentOfficerAddress, tenderName, tenderId, \n        //organisationChain, tenderRefNum,\n        bidSubmissionClosingDate, bidOpeningDate, covers);\n        newTender.setTenderAdvanced(clauses,\n        taskName, taskDays, \n        constraints);\n        allTenders.push(newTender);\n        return newTender;\n    }\n}",
  "sourcePath": "/home/aniketdatar/Desktop/Project/tendersystem-blockchain/contracts/FactoryTender.sol",
  "compiler": {
    "name": "solc",
    "version": "0.8.16+commit.07a7930e.Emscripten.clang"
  },
  "schemaVersion": "3.4.9",
  "updatedAt": "2023-02-06T17:21:37.122Z",
  "devdoc": {
    "kind": "dev",
    "methods": {},
    "version": 1
  },
  "userdoc": {
    "kind": "user",
    "methods": {},
    "version": 1
  }
}