{
  "contractName": "FactoryContract",
  "abi": [
    {
      "inputs": [
        {
          "internalType": "address",
          "name": "govtOfficerAddress",
          "type": "address"
        },
        {
          "internalType": "address",
          "name": "_contractorAddress",
          "type": "address"
        },
        {
          "internalType": "string",
          "name": "_contractName",
          "type": "string"
        },
        {
          "internalType": "string",
          "name": "_tenderId",
          "type": "string"
        },
        {
          "internalType": "uint256",
          "name": "_completionTime",
          "type": "uint256"
        },
        {
          "internalType": "string[]",
          "name": "_constraints",
          "type": "string[]"
        },
        {
          "internalType": "uint256",
          "name": "_finalQuotationAmount",
          "type": "uint256"
        },
        {
          "internalType": "string[]",
          "name": "_taskDescription",
          "type": "string[]"
        },
        {
          "internalType": "uint256[]",
          "name": "_deadlineForEachTask",
          "type": "uint256[]"
        },
        {
          "internalType": "uint256[]",
          "name": "_amountForEachTask",
          "type": "uint256[]"
        }
      ],
      "name": "createContract",
      "outputs": [
        {
          "internalType": "contract Contract",
          "name": "",
          "type": "address"
        }
      ],
      "stateMutability": "payable",
      "type": "function"
    }
  ],
  "bytecode": "0x608060405234801561001057600080fd5b50612f53806100206000396000f3fe60806040526004361061001e5760003560e01c8063555a180314610023575b600080fd5b61003d60048036038101906100389190610580565b610053565b60405161004a9190610766565b60405180910390f35b600080604051610062906101dc565b604051809103906000f08015801561007e573d6000803e3d6000fd5b5090508073ffffffffffffffffffffffffffffffffffffffff1663a83752028d8d8c8c8c6040518663ffffffff1660e01b81526004016100c295949392919061092a565b600060405180830381600087803b1580156100dc57600080fd5b505af11580156100f0573d6000803e3d6000fd5b505050508073ffffffffffffffffffffffffffffffffffffffff1663443d083c8b888888886040518663ffffffff1660e01b8152600401610135959493929190610a49565b600060405180830381600087803b15801561014f57600080fd5b505af1158015610163573d6000803e3d6000fd5b505050506000819080600181540180825580915050600190039060005260206000200160009091909190916101000a81548173ffffffffffffffffffffffffffffffffffffffff021916908373ffffffffffffffffffffffffffffffffffffffff160217905550809150509a9950505050505050505050565b61246580610ab983390190565b6000604051905090565b600080fd5b600080fd5b600073ffffffffffffffffffffffffffffffffffffffff82169050919050565b6000610228826101fd565b9050919050565b6102388161021d565b811461024357600080fd5b50565b6000813590506102558161022f565b92915050565b600080fd5b600080fd5b6000601f19601f8301169050919050565b7f4e487b7100000000000000000000000000000000000000000000000000000000600052604160045260246000fd5b6102ae82610265565b810181811067ffffffffffffffff821117156102cd576102cc610276565b5b80604052505050565b60006102e06101e9565b90506102ec82826102a5565b919050565b600067ffffffffffffffff82111561030c5761030b610276565b5b61031582610265565b9050602081019050919050565b82818337600083830152505050565b600061034461033f846102f1565b6102d6565b9050828152602081018484840111156103605761035f610260565b5b61036b848285610322565b509392505050565b600082601f8301126103885761038761025b565b5b8135610398848260208601610331565b91505092915050565b6000819050919050565b6103b4816103a1565b81146103bf57600080fd5b50565b6000813590506103d1816103ab565b92915050565b600067ffffffffffffffff8211156103f2576103f1610276565b5b602082029050602081019050919050565b600080fd5b600061041b610416846103d7565b6102d6565b9050808382526020820190506020840283018581111561043e5761043d610403565b5b835b8181101561048557803567ffffffffffffffff8111156104635761046261025b565b5b8086016104708982610373565b85526020850194505050602081019050610440565b5050509392505050565b600082601f8301126104a4576104a361025b565b5b81356104b4848260208601610408565b91505092915050565b600067ffffffffffffffff8211156104d8576104d7610276565b5b602082029050602081019050919050565b60006104fc6104f7846104bd565b6102d6565b9050808382526020820190506020840283018581111561051f5761051e610403565b5b835b81811015610548578061053488826103c2565b845260208401935050602081019050610521565b5050509392505050565b600082601f8301126105675761056661025b565b5b81356105778482602086016104e9565b91505092915050565b6000806000806000806000806000806101408b8d0312156105a4576105a36101f3565b5b60006105b28d828e01610246565b9a505060206105c38d828e01610246565b99505060408b013567ffffffffffffffff8111156105e4576105e36101f8565b5b6105f08d828e01610373565b98505060608b013567ffffffffffffffff811115610611576106106101f8565b5b61061d8d828e01610373565b975050608061062e8d828e016103c2565b96505060a08b013567ffffffffffffffff81111561064f5761064e6101f8565b5b61065b8d828e0161048f565b95505060c061066c8d828e016103c2565b94505060e08b013567ffffffffffffffff81111561068d5761068c6101f8565b5b6106998d828e0161048f565b9350506101008b013567ffffffffffffffff8111156106bb576106ba6101f8565b5b6106c78d828e01610552565b9250506101208b013567ffffffffffffffff8111156106e9576106e86101f8565b5b6106f58d828e01610552565b9150509295989b9194979a5092959850565b6000819050919050565b600061072c610727610722846101fd565b610707565b6101fd565b9050919050565b600061073e82610711565b9050919050565b600061075082610733565b9050919050565b61076081610745565b82525050565b600060208201905061077b6000830184610757565b92915050565b61078a8161021d565b82525050565b600081519050919050565b600082825260208201905092915050565b60005b838110156107ca5780820151818401526020810190506107af565b60008484015250505050565b60006107e182610790565b6107eb818561079b565b93506107fb8185602086016107ac565b61080481610265565b840191505092915050565b610818816103a1565b82525050565b600081519050919050565b600082825260208201905092915050565b6000819050602082019050919050565b600082825260208201905092915050565b600061086682610790565b610870818561084a565b93506108808185602086016107ac565b61088981610265565b840191505092915050565b60006108a0838361085b565b905092915050565b6000602082019050919050565b60006108c08261081e565b6108ca8185610829565b9350836020820285016108dc8561083a565b8060005b8581101561091857848403895281516108f98582610894565b9450610904836108a8565b925060208a019950506001810190506108e0565b50829750879550505050505092915050565b600060a08201905061093f6000830188610781565b61094c6020830187610781565b818103604083015261095e81866107d6565b905061096d606083018561080f565b818103608083015261097f81846108b5565b90509695505050505050565b600081519050919050565b600082825260208201905092915050565b6000819050602082019050919050565b6109c0816103a1565b82525050565b60006109d283836109b7565b60208301905092915050565b6000602082019050919050565b60006109f68261098b565b610a008185610996565b9350610a0b836109a7565b8060005b83811015610a3c578151610a2388826109c6565b9750610a2e836109de565b925050600181019050610a0f565b5085935050505092915050565b600060a0820190508181036000830152610a6381886107d6565b9050610a72602083018761080f565b8181036040830152610a8481866108b5565b90508181036060830152610a9881856109eb565b90508181036080830152610aac81846109eb565b9050969550505050505056fe608060405234801561001057600080fd5b50612445806100206000396000f3fe6080604052600436106101145760003560e01c806375d0c0dc116100a0578063c2f218b911610064578063c2f218b9146103c4578063e87870b6146103f4578063f21376af1461041f578063f5f5ba721461044a578063f6397fd31461047557610114565b806375d0c0dc146102d95780638a2cfcc4146103045780638d9776721461032f578063a783fd9214610370578063a83752021461039b57610114565b8063443d083c116100e7578063443d083c146101eb57806344e446a41461021457806345bf2d2c1461024157806346d722e7146102715780635573e3ef1461029c57610114565b8063041f624f1461011957806305b34410146101565780631d65e77e146101815780633e959bc8146101c2575b600080fd5b34801561012557600080fd5b50610140600480360381019061013b91906115e5565b6104a0565b60405161014d91906116a2565b60405180910390f35b34801561016257600080fd5b5061016b61054c565b60405161017891906116d3565b60405180910390f35b34801561018d57600080fd5b506101a860048036038101906101a391906115e5565b610552565b6040516101b9959493929190611765565b60405180910390f35b3480156101ce57600080fd5b506101e960048036038101906101e491906115e5565b6106c3565b005b3480156101f757600080fd5b50610212600480360381019061020d9190611a9d565b610871565b005b34801561022057600080fd5b50610229610adb565b60405161023893929190611c94565b60405180910390f35b61025b600480360381019061025691906115e5565b610c52565b6040516102689190611cf4565b60405180910390f35b34801561027d57600080fd5b50610286610e52565b6040516102939190611d50565b60405180910390f35b3480156102a857600080fd5b506102c360048036038101906102be91906115e5565b610e76565b6040516102d09190611cf4565b60405180910390f35b3480156102e557600080fd5b506102ee61102f565b6040516102fb91906116a2565b60405180910390f35b34801561031057600080fd5b506103196110bd565b60405161032691906116d3565b60405180910390f35b34801561033b57600080fd5b50610356600480360381019061035191906115e5565b6110c7565b604051610367959493929190611765565b60405180910390f35b34801561037c57600080fd5b506103856111a2565b6040516103929190611cf4565b60405180910390f35b3480156103a757600080fd5b506103c260048036038101906103bd9190611d97565b6111b5565b005b3480156103d057600080fd5b506103d9611272565b6040516103eb96959493929190611e4a565b60405180910390f35b34801561040057600080fd5b506104096113f6565b60405161041691906116d3565b60405180910390f35b34801561042b57600080fd5b506104346113fc565b6040516104419190611d50565b60405180910390f35b34801561045657600080fd5b5061045f611422565b60405161046c91906116a2565b60405180910390f35b34801561048157600080fd5b5061048a6114b4565b60405161049791906116d3565b60405180910390f35b600581815481106104b057600080fd5b9060005260206000200160009150905080546104cb90611ee8565b80601f01602080910402602001604051908101604052809291908181526020018280546104f790611ee8565b80156105445780601f1061051957610100808354040283529160200191610544565b820191906000526020600020905b81548152906001019060200180831161052757829003601f168201915b505050505081565b60035481565b6060600080600080600a868154811061056e5761056d611f19565b5b9060005260206000209060050201600001600a878154811061059357610592611f19565b5b906000526020600020906005020160010154600a88815481106105b9576105b8611f19565b5b906000526020600020906005020160020154600a89815481106105df576105de611f19565b5b906000526020600020906005020160030160009054906101000a900460ff16600a8a8154811061061257610611611f19565b5b90600052602060002090600502016004015484805461063090611ee8565b80601f016020809104026020016040519081016040528092919081815260200182805461065c90611ee8565b80156106a95780601f1061067e576101008083540402835291602001916106a9565b820191906000526020600020905b81548152906001019060200180831161068c57829003601f168201915b505050505094509450945094509450945091939590929450565b600160009054906101000a900473ffffffffffffffffffffffffffffffffffffffff1673ffffffffffffffffffffffffffffffffffffffff163373ffffffffffffffffffffffffffffffffffffffff1603610753576040517f08c379a000000000000000000000000000000000000000000000000000000000815260040161074a90611f94565b60405180910390fd5b600a80549050811061076457600080fd5b6000600a828154811061077a57610779611f19565b5b90600052602060002090600502019050600160009054906101000a900473ffffffffffffffffffffffffffffffffffffffff1673ffffffffffffffffffffffffffffffffffffffff163373ffffffffffffffffffffffffffffffffffffffff16146107e457600080fd5b600060048111156107f8576107f76116ee565b5b8160030160009054906101000a900460ff16600481111561081c5761081b6116ee565b5b1461082657600080fd5b806001015442111561083757600080fd5b60018160030160006101000a81548160ff0219169083600481111561085f5761085e6116ee565b5b02179055504281600401819055505050565b84600890816108809190612160565b50836006819055506000805b8451811015610a8f5760006040518060a001604052808784815181106108b5576108b4611f19565b5b602002602001015181526020018684815181106108d5576108d4611f19565b5b602002602001015181526020018584815181106108f5576108f4611f19565b5b6020026020010151815260200160006004811115610916576109156116ee565b5b815260200186848151811061092e5761092d611f19565b5b6020026020010151426109419190612261565b815250905083828151811061095957610958611f19565b5b60200260200101518361096c9190612261565b9250806009600084815260200190815260200160002060008201518160000190816109979190612160565b50602082015181600101556040820151816002015560608201518160030160006101000a81548160ff021916908360048111156109d7576109d66116ee565b5b021790555060808201518160040155905050600a8190806001815401808255809150506001900390600052602060002090600502016000909190919091506000820151816000019081610a2a9190612160565b50602082015181600101556040820151816002015560608201518160030160006101000a81548160ff02191690836004811115610a6a57610a696116ee565b5b0217905550608082015181600401555050508080610a8790612295565b91505061088c565b5084811015610ad3576040517f08c379a0000000000000000000000000000000000000000000000000000000008152600401610aca90612329565b60405180910390fd5b505050505050565b60606000606060086006546005828054610af490611ee8565b80601f0160208091040260200160405190810160405280929190818152602001828054610b2090611ee8565b8015610b6d5780601f10610b4257610100808354040283529160200191610b6d565b820191906000526020600020905b815481529060010190602001808311610b5057829003601f168201915b5050505050925080805480602002602001604051908101604052809291908181526020016000905b82821015610c41578382906000526020600020018054610bb490611ee8565b80601f0160208091040260200160405190810160405280929190818152602001828054610be090611ee8565b8015610c2d5780601f10610c0257610100808354040283529160200191610c2d565b820191906000526020600020905b815481529060010190602001808311610c1057829003601f168201915b505050505081526020019060010190610b95565b505050509050925092509250909192565b6000600160009054906101000a900473ffffffffffffffffffffffffffffffffffffffff1673ffffffffffffffffffffffffffffffffffffffff163373ffffffffffffffffffffffffffffffffffffffff1603610ce4576040517f08c379a0000000000000000000000000000000000000000000000000000000008152600401610cdb90611f94565b60405180910390fd5b600a805490508210610cf557600080fd5b6000600a8381548110610d0b57610d0a611f19565b5b90600052602060002090600502019050600160009054906101000a900473ffffffffffffffffffffffffffffffffffffffff1673ffffffffffffffffffffffffffffffffffffffff163373ffffffffffffffffffffffffffffffffffffffff1614610d7557600080fd5b60036004811115610d8957610d886116ee565b5b8160030160009054906101000a900460ff166004811115610dad57610dac6116ee565b5b14610db757600080fd5b6000670de0b6b3a76400008260020154610dd19190612349565b905060048260030160006101000a81548160ff02191690836004811115610dfb57610dfa6116ee565b5b02179055503373ffffffffffffffffffffffffffffffffffffffff166108fc829081150290604051600060405180830381858888f19350505050158015610e46573d6000803e3d6000fd5b50600192505050919050565b60008054906101000a900473ffffffffffffffffffffffffffffffffffffffff1681565b60008060009054906101000a900473ffffffffffffffffffffffffffffffffffffffff1673ffffffffffffffffffffffffffffffffffffffff163373ffffffffffffffffffffffffffffffffffffffff1603610f07576040517f08c379a0000000000000000000000000000000000000000000000000000000008152600401610efe906123ef565b60405180910390fd5b600a805490508210610f1857600080fd5b6000600a8381548110610f2e57610f2d611f19565b5b9060005260206000209060050201905060016004811115610f5257610f516116ee565b5b8160030160009054906101000a900460ff166004811115610f7657610f756116ee565b5b14610f8057600080fd5b60008054906101000a900473ffffffffffffffffffffffffffffffffffffffff1673ffffffffffffffffffffffffffffffffffffffff163373ffffffffffffffffffffffffffffffffffffffff1603611025576001600760006101000a81548160ff02191690831515021790555060038160030160006101000a81548160ff02191690836004811115611016576110156116ee565b5b0217905550600191505061102a565b600080fd5b919050565b6008805461103c90611ee8565b80601f016020809104026020016040519081016040528092919081815260200182805461106890611ee8565b80156110b55780601f1061108a576101008083540402835291602001916110b5565b820191906000526020600020905b81548152906001019060200180831161109857829003601f168201915b505050505081565b6000600454905090565b600a81815481106110d757600080fd5b90600052602060002090600502016000915090508060000180546110fa90611ee8565b80601f016020809104026020016040519081016040528092919081815260200182805461112690611ee8565b80156111735780601f1061114857610100808354040283529160200191611173565b820191906000526020600020905b81548152906001019060200180831161115657829003601f168201915b5050505050908060010154908060020154908060030160009054906101000a900460ff16908060040154905085565b600760009054906101000a900460ff1681565b846000806101000a81548173ffffffffffffffffffffffffffffffffffffffff021916908373ffffffffffffffffffffffffffffffffffffffff16021790555083600160006101000a81548173ffffffffffffffffffffffffffffffffffffffff021916908373ffffffffffffffffffffffffffffffffffffffff16021790555082600290816112459190612160565b50806005908051906020019061125c9291906114c1565b5042600381905550816004819055505050505050565b60606000806060600080600860008054906101000a900473ffffffffffffffffffffffffffffffffffffffff16600160009054906101000a900473ffffffffffffffffffffffffffffffffffffffff1660026003546004548580546112d690611ee8565b80601f016020809104026020016040519081016040528092919081815260200182805461130290611ee8565b801561134f5780601f106113245761010080835404028352916020019161134f565b820191906000526020600020905b81548152906001019060200180831161133257829003601f168201915b5050505050955082805461136290611ee8565b80601f016020809104026020016040519081016040528092919081815260200182805461138e90611ee8565b80156113db5780601f106113b0576101008083540402835291602001916113db565b820191906000526020600020905b8154815290600101906020018083116113be57829003601f168201915b50505050509250955095509550955095509550909192939495565b60045481565b600160009054906101000a900473ffffffffffffffffffffffffffffffffffffffff1681565b60606008805461143190611ee8565b80601f016020809104026020016040519081016040528092919081815260200182805461145d90611ee8565b80156114aa5780601f1061147f576101008083540402835291602001916114aa565b820191906000526020600020905b81548152906001019060200180831161148d57829003601f168201915b5050505050905090565b6000600a80549050905090565b828054828255906000526020600020908101928215611509579160200282015b828111156115085782518290816114f89190612160565b50916020019190600101906114e1565b5b509050611516919061151a565b5090565b5b8082111561153a5760008181611531919061153e565b5060010161151b565b5090565b50805461154a90611ee8565b6000825580601f1061155c575061157b565b601f01602090049060005260206000209081019061157a919061157e565b5b50565b5b8082111561159757600081600090555060010161157f565b5090565b6000604051905090565b600080fd5b600080fd5b6000819050919050565b6115c2816115af565b81146115cd57600080fd5b50565b6000813590506115df816115b9565b92915050565b6000602082840312156115fb576115fa6115a5565b5b6000611609848285016115d0565b91505092915050565b600081519050919050565b600082825260208201905092915050565b60005b8381101561164c578082015181840152602081019050611631565b60008484015250505050565b6000601f19601f8301169050919050565b600061167482611612565b61167e818561161d565b935061168e81856020860161162e565b61169781611658565b840191505092915050565b600060208201905081810360008301526116bc8184611669565b905092915050565b6116cd816115af565b82525050565b60006020820190506116e860008301846116c4565b92915050565b7f4e487b7100000000000000000000000000000000000000000000000000000000600052602160045260246000fd5b6005811061172e5761172d6116ee565b5b50565b600081905061173f8261171d565b919050565b600061174f82611731565b9050919050565b61175f81611744565b82525050565b600060a082019050818103600083015261177f8188611669565b905061178e60208301876116c4565b61179b60408301866116c4565b6117a86060830185611756565b6117b560808301846116c4565b9695505050505050565b600080fd5b600080fd5b7f4e487b7100000000000000000000000000000000000000000000000000000000600052604160045260246000fd5b61180182611658565b810181811067ffffffffffffffff821117156118205761181f6117c9565b5b80604052505050565b600061183361159b565b905061183f82826117f8565b919050565b600067ffffffffffffffff82111561185f5761185e6117c9565b5b61186882611658565b9050602081019050919050565b82818337600083830152505050565b600061189761189284611844565b611829565b9050828152602081018484840111156118b3576118b26117c4565b5b6118be848285611875565b509392505050565b600082601f8301126118db576118da6117bf565b5b81356118eb848260208601611884565b91505092915050565b600067ffffffffffffffff82111561190f5761190e6117c9565b5b602082029050602081019050919050565b600080fd5b6000611938611933846118f4565b611829565b9050808382526020820190506020840283018581111561195b5761195a611920565b5b835b818110156119a257803567ffffffffffffffff8111156119805761197f6117bf565b5b80860161198d89826118c6565b8552602085019450505060208101905061195d565b5050509392505050565b600082601f8301126119c1576119c06117bf565b5b81356119d1848260208601611925565b91505092915050565b600067ffffffffffffffff8211156119f5576119f46117c9565b5b602082029050602081019050919050565b6000611a19611a14846119da565b611829565b90508083825260208201905060208402830185811115611a3c57611a3b611920565b5b835b81811015611a655780611a5188826115d0565b845260208401935050602081019050611a3e565b5050509392505050565b600082601f830112611a8457611a836117bf565b5b8135611a94848260208601611a06565b91505092915050565b600080600080600060a08688031215611ab957611ab86115a5565b5b600086013567ffffffffffffffff811115611ad757611ad66115aa565b5b611ae3888289016118c6565b9550506020611af4888289016115d0565b945050604086013567ffffffffffffffff811115611b1557611b146115aa565b5b611b21888289016119ac565b935050606086013567ffffffffffffffff811115611b4257611b416115aa565b5b611b4e88828901611a6f565b925050608086013567ffffffffffffffff811115611b6f57611b6e6115aa565b5b611b7b88828901611a6f565b9150509295509295909350565b600081519050919050565b600082825260208201905092915050565b6000819050602082019050919050565b600082825260208201905092915050565b6000611bd082611612565b611bda8185611bb4565b9350611bea81856020860161162e565b611bf381611658565b840191505092915050565b6000611c0a8383611bc5565b905092915050565b6000602082019050919050565b6000611c2a82611b88565b611c348185611b93565b935083602082028501611c4685611ba4565b8060005b85811015611c825784840389528151611c638582611bfe565b9450611c6e83611c12565b925060208a01995050600181019050611c4a565b50829750879550505050505092915050565b60006060820190508181036000830152611cae8186611669565b9050611cbd60208301856116c4565b8181036040830152611ccf8184611c1f565b9050949350505050565b60008115159050919050565b611cee81611cd9565b82525050565b6000602082019050611d096000830184611ce5565b92915050565b600073ffffffffffffffffffffffffffffffffffffffff82169050919050565b6000611d3a82611d0f565b9050919050565b611d4a81611d2f565b82525050565b6000602082019050611d656000830184611d41565b92915050565b611d7481611d2f565b8114611d7f57600080fd5b50565b600081359050611d9181611d6b565b92915050565b600080600080600060a08688031215611db357611db26115a5565b5b6000611dc188828901611d82565b9550506020611dd288828901611d82565b945050604086013567ffffffffffffffff811115611df357611df26115aa565b5b611dff888289016118c6565b9350506060611e10888289016115d0565b925050608086013567ffffffffffffffff811115611e3157611e306115aa565b5b611e3d888289016119ac565b9150509295509295909350565b600060c0820190508181036000830152611e648189611669565b9050611e736020830188611d41565b611e806040830187611d41565b8181036060830152611e928186611669565b9050611ea160808301856116c4565b611eae60a08301846116c4565b979650505050505050565b7f4e487b7100000000000000000000000000000000000000000000000000000000600052602260045260246000fd5b60006002820490506001821680611f0057607f821691505b602082108103611f1357611f12611eb9565b5b50919050565b7f4e487b7100000000000000000000000000000000000000000000000000000000600052603260045260246000fd5b7f57524f4e4720434f4e544143544f520000000000000000000000000000000000600082015250565b6000611f7e600f8361161d565b9150611f8982611f48565b602082019050919050565b60006020820190508181036000830152611fad81611f71565b9050919050565b60008190508160005260206000209050919050565b60006020601f8301049050919050565b600082821b905092915050565b6000600883026120167fffffffffffffffffffffffffffffffffffffffffffffffffffffffffffffffff82611fd9565b6120208683611fd9565b95508019841693508086168417925050509392505050565b6000819050919050565b600061205d612058612053846115af565b612038565b6115af565b9050919050565b6000819050919050565b61207783612042565b61208b61208382612064565b848454611fe6565b825550505050565b600090565b6120a0612093565b6120ab81848461206e565b505050565b5b818110156120cf576120c4600082612098565b6001810190506120b1565b5050565b601f821115612114576120e581611fb4565b6120ee84611fc9565b810160208510156120fd578190505b61211161210985611fc9565b8301826120b0565b50505b505050565b600082821c905092915050565b600061213760001984600802612119565b1980831691505092915050565b60006121508383612126565b9150826002028217905092915050565b61216982611612565b67ffffffffffffffff811115612182576121816117c9565b5b61218c8254611ee8565b6121978282856120d3565b600060209050601f8311600181146121ca57600084156121b8578287015190505b6121c28582612144565b86555061222a565b601f1984166121d886611fb4565b60005b82811015612200578489015182556001820191506020850194506020810190506121db565b8683101561221d5784890151612219601f891682612126565b8355505b6001600288020188555050505b505050505050565b7f4e487b7100000000000000000000000000000000000000000000000000000000600052601160045260246000fd5b600061226c826115af565b9150612277836115af565b925082820190508082111561228f5761228e612232565b5b92915050565b60006122a0826115af565b91507fffffffffffffffffffffffffffffffffffffffffffffffffffffffffffffffff82036122d2576122d1612232565b5b600182019050919050565b7f46696e616c2051756174696f6e20416d6f756e74204558434545445321000000600082015250565b6000612313601d8361161d565b915061231e826122dd565b602082019050919050565b6000602082019050818103600083015261234281612306565b9050919050565b6000612354826115af565b915061235f836115af565b9250817fffffffffffffffffffffffffffffffffffffffffffffffffffffffffffffffff048311821515161561239857612397612232565b5b828202905092915050565b7f57524f4e4720474f5645524e454d54204f464649434552210000000000000000600082015250565b60006123d960188361161d565b91506123e4826123a3565b602082019050919050565b60006020820190508181036000830152612408816123cc565b905091905056fea2646970667358221220cc22b04c8840e98257cc772cead561ef23de8e4cd9f444fd6bcb24d948dfafa964736f6c63430008100033a2646970667358221220606ab53819d5d22e624ccbc3ace8d6c4a367eb111d71ceb6514a00bdac5c6b6464736f6c63430008100033",
  "immutableReferences": {},
  "source": "// SPDX-License-Identifier: GPL-3.0\npragma solidity ^0.8.0;\npragma experimental ABIEncoderV2;\n\nimport \"./Contract.sol\";\n\n\ncontract FactoryContract {\n    Contract[] allContracts;\n\n    function createContract(address govtOfficerAddress,\n        address _contractorAddress, string memory _contractName, string memory _tenderId, \n        uint _completionTime, \n        string[] memory  _constraints, \n        uint _finalQuotationAmount,\n        string[] memory  _taskDescription, \n        uint[] memory _deadlineForEachTask, \n        uint[] memory  _amountForEachTask) public payable returns (Contract) {\n        \n        Contract newContract = new Contract();\n        \n        newContract.setContractBasic(govtOfficerAddress, \n        _contractorAddress, \n        _tenderId,\n        _completionTime,\n        _constraints\n        );\n// string memory  _contractName, \n//         uint _finalQuotationAmount,\n//         string[] memory  _taskDescription, \n//         uint[] memory  _deadlineForEachTask, \n//         uint[] memory  _amountForEachTask\n        newContract.setContractAdvanced(_contractName, \n        _finalQuotationAmount,\n        _taskDescription, \n        _deadlineForEachTask, \n        _amountForEachTask);\n\n        allContracts.push(newContract);\n        return newContract;\n    }\n}",
  "sourcePath": "/home/aniketdatar/Desktop/Project/tendersystem-blockchain/contracts/FactoryContract.sol",
  "compiler": {
    "name": "solc",
    "version": "0.8.16+commit.07a7930e.Emscripten.clang"
  },
  "schemaVersion": "3.4.9",
  "updatedAt": "2023-02-02T15:24:04.490Z",
  "devdoc": {
    "kind": "dev",
    "methods": {},
    "version": 1
  },
  "userdoc": {
    "kind": "user",
    "methods": {},
    "version": 1
  }
}