{
  "contractName": "FactoryGovernmentOfficer",
  "abi": [
    {
      "inputs": [
        {
          "internalType": "address",
          "name": "_walletAddress",
          "type": "address"
        },
        {
          "internalType": "string",
          "name": "_email",
          "type": "string"
        },
        {
          "internalType": "string",
          "name": "_name",
          "type": "string"
        },
        {
          "internalType": "string",
          "name": "_phoneNumber",
          "type": "string"
        },
        {
          "internalType": "string",
          "name": "_employeeId",
          "type": "string"
        }
      ],
      "name": "registerOfficer",
      "outputs": [
        {
          "internalType": "address",
          "name": "",
          "type": "address"
        }
      ],
      "stateMutability": "nonpayable",
      "type": "function"
    }
  ],
  "bytecode": "0x608060405234801561001057600080fd5b50612165806100206000396000f3fe608060405234801561001057600080fd5b506004361061002b5760003560e01c80635eaab2e814610030575b600080fd5b61004a60048036038101906100459190610336565b610060565b6040516100579190610430565b60405180910390f35b60008060405161006f90610171565b604051809103906000f08015801561008b573d6000803e3d6000fd5b5090508073ffffffffffffffffffffffffffffffffffffffff166371750db688888888886040518663ffffffff1660e01b81526004016100cf9594939291906104ca565b600060405180830381600087803b1580156100e957600080fd5b505af11580156100fd573d6000803e3d6000fd5b505050506000879080600181540180825580915050600190039060005260206000200160009091909190916101000a81548173ffffffffffffffffffffffffffffffffffffffff021916908373ffffffffffffffffffffffffffffffffffffffff1602179055508691505095945050505050565b611bf68061053a83390190565b6000604051905090565b600080fd5b600080fd5b600073ffffffffffffffffffffffffffffffffffffffff82169050919050565b60006101bd82610192565b9050919050565b6101cd816101b2565b81146101d857600080fd5b50565b6000813590506101ea816101c4565b92915050565b600080fd5b600080fd5b6000601f19601f8301169050919050565b7f4e487b7100000000000000000000000000000000000000000000000000000000600052604160045260246000fd5b610243826101fa565b810181811067ffffffffffffffff821117156102625761026161020b565b5b80604052505050565b600061027561017e565b9050610281828261023a565b919050565b600067ffffffffffffffff8211156102a1576102a061020b565b5b6102aa826101fa565b9050602081019050919050565b82818337600083830152505050565b60006102d96102d484610286565b61026b565b9050828152602081018484840111156102f5576102f46101f5565b5b6103008482856102b7565b509392505050565b600082601f83011261031d5761031c6101f0565b5b813561032d8482602086016102c6565b91505092915050565b600080600080600060a0868803121561035257610351610188565b5b6000610360888289016101db565b955050602086013567ffffffffffffffff8111156103815761038061018d565b5b61038d88828901610308565b945050604086013567ffffffffffffffff8111156103ae576103ad61018d565b5b6103ba88828901610308565b935050606086013567ffffffffffffffff8111156103db576103da61018d565b5b6103e788828901610308565b925050608086013567ffffffffffffffff8111156104085761040761018d565b5b61041488828901610308565b9150509295509295909350565b61042a816101b2565b82525050565b60006020820190506104456000830184610421565b92915050565b600081519050919050565b600082825260208201905092915050565b60005b8381101561048557808201518184015260208101905061046a565b60008484015250505050565b600061049c8261044b565b6104a68185610456565b93506104b6818560208601610467565b6104bf816101fa565b840191505092915050565b600060a0820190506104df6000830188610421565b81810360208301526104f18187610491565b905081810360408301526105058186610491565b905081810360608301526105198185610491565b9050818103608083015261052d8184610491565b9050969550505050505056fe608060405234801561001057600080fd5b50611bd6806100206000396000f3fe608060405234801561001057600080fd5b50600436106101585760003560e01c806371750db6116100c3578063b808fad41161007c578063b808fad4146103f1578063c1fb28ec1461040f578063c81bde151461043f578063c900b1f81461045d578063d19641721461048d578063e7b73493146104a957610158565b806371750db61461031b578063747f338014610337578063820e93f51461035557806384ab30a5146103735780639370f3c214610391578063aa8ed410146103c157610158565b8063474da79a11610115578063474da79a14610231578063534f9c531461026157806353ff87ac1461029157806360415df0146102af57806366a0a6d9146102cd5780636ad5b3ea146102fd57610158565b806306fdde031461015d57806316f4f3041461017b5780631ad86bf2146101ab57806329fe9095146101b5578063423d4f80146101d1578063465e1def14610201575b600080fd5b6101656104c7565b6040516101729190611358565b60405180910390f35b610195600480360381019061019091906113c4565b610555565b6040516101a29190611432565b60405180910390f35b6101b3610594565b005b6101cf60048036038101906101ca9190611479565b6105b1565b005b6101eb60048036038101906101e691906114a6565b610617565b6040516101f89190611501565b60405180910390f35b61021b600480360381019061021691906113c4565b6108e1565b6040516102289190611432565b60405180910390f35b61024b600480360381019061024691906113c4565b610920565b6040516102589190611432565b60405180910390f35b61027b60048036038101906102769190611479565b61095f565b6040516102889190611501565b60405180910390f35b61029961097f565b6040516102a691906115da565b60405180910390f35b6102b7610a0d565b6040516102c491906115da565b60405180910390f35b6102e760048036038101906102e291906113c4565b610a9b565b6040516102f49190611432565b60405180910390f35b610305610ada565b6040516103129190611432565b60405180910390f35b61033560048036038101906103309190611731565b610afe565b005b61033f610ba0565b60405161034c9190611358565b60405180910390f35b61035d610c2e565b60405161036a9190611358565b60405180910390f35b61037b610cbc565b6040516103889190611358565b60405180910390f35b6103ab60048036038101906103a691906113c4565b610d4a565b6040516103b89190611432565b60405180910390f35b6103db60048036038101906103d69190611479565b610d89565b6040516103e89190611501565b60405180910390f35b6103f9610f33565b60405161040691906115da565b60405180910390f35b61042960048036038101906104249190611479565b610fc1565b6040516104369190611432565b60405180910390f35b610447610ff4565b60405161045491906115da565b60405180910390f35b61047760048036038101906104729190611479565b611082565b6040516104849190611501565b60405180910390f35b6104a760048036038101906104a29190611479565b6111d4565b005b6104b161123a565b6040516104be91906115da565b60405180910390f35b600380546104d49061184b565b80601f01602080910402602001604051908101604052809291908181526020018280546105009061184b565b801561054d5780601f106105225761010080835404028352916020019161054d565b820191906000526020600020905b81548152906001019060200180831161053057829003601f168201915b505050505081565b6007818154811061056557600080fd5b906000526020600020016000915054906101000a900473ffffffffffffffffffffffffffffffffffffffff1681565b6001600560006101000a81548160ff021916908315150217905550565b6006819080600181540180825580915050600190039060005260206000200160009091909190916101000a81548173ffffffffffffffffffffffffffffffffffffffff021916908373ffffffffffffffffffffffffffffffffffffffff16021790555050565b600080600090505b6006805490508110156108d5578373ffffffffffffffffffffffffffffffffffffffff16600882815481106106575761065661187c565b5b9060005260206000200160009054906101000a900473ffffffffffffffffffffffffffffffffffffffff1673ffffffffffffffffffffffffffffffffffffffff16036108c2576007849080600181540180825580915050600190039060005260206000200160009091909190916101000a81548173ffffffffffffffffffffffffffffffffffffffff021916908373ffffffffffffffffffffffffffffffffffffffff16021790555082600c6000600884815481106107195761071861187c565b5b9060005260206000200160009054906101000a900473ffffffffffffffffffffffffffffffffffffffff1673ffffffffffffffffffffffffffffffffffffffff1673ffffffffffffffffffffffffffffffffffffffff16815260200190815260200160002060006101000a81548173ffffffffffffffffffffffffffffffffffffffff021916908373ffffffffffffffffffffffffffffffffffffffff1602179055506009839080600181540180825580915050600190039060005260206000200160009091909190916101000a81548173ffffffffffffffffffffffffffffffffffffffff021916908373ffffffffffffffffffffffffffffffffffffffff1602179055506000600b60008573ffffffffffffffffffffffffffffffffffffffff1673ffffffffffffffffffffffffffffffffffffffff16815260200190815260200160002060006101000a81548160ff0219169083151502179055506008818154811061088b5761088a61187c565b5b9060005260206000200160006101000a81549073ffffffffffffffffffffffffffffffffffffffff021916905560019150506108db565b80806108cd906118da565b91505061061f565b50600090505b92915050565b600681815481106108f157600080fd5b906000526020600020016000915054906101000a900473ffffffffffffffffffffffffffffffffffffffff1681565b6009818154811061093057600080fd5b906000526020600020016000915054906101000a900473ffffffffffffffffffffffffffffffffffffffff1681565b600b6020528060005260406000206000915054906101000a900460ff1681565b6060600a805480602002602001604051908101604052809291908181526020018280548015610a0357602002820191906000526020600020905b8160009054906101000a900473ffffffffffffffffffffffffffffffffffffffff1673ffffffffffffffffffffffffffffffffffffffff16815260200190600101908083116109b9575b5050505050905090565b60606008805480602002602001604051908101604052809291908181526020018280548015610a9157602002820191906000526020600020905b8160009054906101000a900473ffffffffffffffffffffffffffffffffffffffff1673ffffffffffffffffffffffffffffffffffffffff1681526020019060010190808311610a47575b5050505050905090565b600a8181548110610aab57600080fd5b906000526020600020016000915054906101000a900473ffffffffffffffffffffffffffffffffffffffff1681565b60008054906101000a900473ffffffffffffffffffffffffffffffffffffffff1681565b846000806101000a81548173ffffffffffffffffffffffffffffffffffffffff021916908373ffffffffffffffffffffffffffffffffffffffff1602179055508360019081610b4d9190611ace565b508160029081610b5d9190611ace565b508260039081610b6d9190611ace565b508060049081610b7d9190611ace565b506000600560006101000a81548160ff0219169083151502179055505050505050565b60028054610bad9061184b565b80601f0160208091040260200160405190810160405280929190818152602001828054610bd99061184b565b8015610c265780601f10610bfb57610100808354040283529160200191610c26565b820191906000526020600020905b815481529060010190602001808311610c0957829003601f168201915b505050505081565b60018054610c3b9061184b565b80601f0160208091040260200160405190810160405280929190818152602001828054610c679061184b565b8015610cb45780601f10610c8957610100808354040283529160200191610cb4565b820191906000526020600020905b815481529060010190602001808311610c9757829003601f168201915b505050505081565b60048054610cc99061184b565b80601f0160208091040260200160405190810160405280929190818152602001828054610cf59061184b565b8015610d425780601f10610d1757610100808354040283529160200191610d42565b820191906000526020600020905b815481529060010190602001808311610d2557829003601f168201915b505050505081565b60088181548110610d5a57600080fd5b906000526020600020016000915054906101000a900473ffffffffffffffffffffffffffffffffffffffff1681565b600080600090505b600980549050811015610f28578273ffffffffffffffffffffffffffffffffffffffff1660098281548110610dc957610dc861187c565b5b9060005260206000200160009054906101000a900473ffffffffffffffffffffffffffffffffffffffff1673ffffffffffffffffffffffffffffffffffffffff1603610f1557600a839080600181540180825580915050600190039060005260206000200160009091909190916101000a81548173ffffffffffffffffffffffffffffffffffffffff021916908373ffffffffffffffffffffffffffffffffffffffff1602179055506001600b60008573ffffffffffffffffffffffffffffffffffffffff1673ffffffffffffffffffffffffffffffffffffffff16815260200190815260200160002060006101000a81548160ff02191690831515021790555060098181548110610ede57610edd61187c565b5b9060005260206000200160006101000a81549073ffffffffffffffffffffffffffffffffffffffff02191690556001915050610f2e565b8080610f20906118da565b915050610d91565b50600090505b919050565b60606007805480602002602001604051908101604052809291908181526020018280548015610fb757602002820191906000526020600020905b8160009054906101000a900473ffffffffffffffffffffffffffffffffffffffff1673ffffffffffffffffffffffffffffffffffffffff1681526020019060010190808311610f6d575b5050505050905090565b600c6020528060005260406000206000915054906101000a900473ffffffffffffffffffffffffffffffffffffffff1681565b6060600980548060200260200160405190810160405280929190818152602001828054801561107857602002820191906000526020600020905b8160009054906101000a900473ffffffffffffffffffffffffffffffffffffffff1673ffffffffffffffffffffffffffffffffffffffff168152602001906001019080831161102e575b5050505050905090565b600080600090505b6006805490508110156111c9578273ffffffffffffffffffffffffffffffffffffffff16600682815481106110c2576110c161187c565b5b9060005260206000200160009054906101000a900473ffffffffffffffffffffffffffffffffffffffff1673ffffffffffffffffffffffffffffffffffffffff16036111b6576008839080600181540180825580915050600190039060005260206000200160009091909190916101000a81548173ffffffffffffffffffffffffffffffffffffffff021916908373ffffffffffffffffffffffffffffffffffffffff1602179055506006818154811061117f5761117e61187c565b5b9060005260206000200160006101000a81549073ffffffffffffffffffffffffffffffffffffffff021916905560019150506111cf565b80806111c1906118da565b91505061108a565b50600090505b919050565b6009819080600181540180825580915050600190039060005260206000200160009091909190916101000a81548173ffffffffffffffffffffffffffffffffffffffff021916908373ffffffffffffffffffffffffffffffffffffffff16021790555050565b606060068054806020026020016040519081016040528092919081815260200182805480156112be57602002820191906000526020600020905b8160009054906101000a900473ffffffffffffffffffffffffffffffffffffffff1673ffffffffffffffffffffffffffffffffffffffff1681526020019060010190808311611274575b5050505050905090565b600081519050919050565b600082825260208201905092915050565b60005b838110156113025780820151818401526020810190506112e7565b60008484015250505050565b6000601f19601f8301169050919050565b600061132a826112c8565b61133481856112d3565b93506113448185602086016112e4565b61134d8161130e565b840191505092915050565b60006020820190508181036000830152611372818461131f565b905092915050565b6000604051905090565b600080fd5b600080fd5b6000819050919050565b6113a18161138e565b81146113ac57600080fd5b50565b6000813590506113be81611398565b92915050565b6000602082840312156113da576113d9611384565b5b60006113e8848285016113af565b91505092915050565b600073ffffffffffffffffffffffffffffffffffffffff82169050919050565b600061141c826113f1565b9050919050565b61142c81611411565b82525050565b60006020820190506114476000830184611423565b92915050565b61145681611411565b811461146157600080fd5b50565b6000813590506114738161144d565b92915050565b60006020828403121561148f5761148e611384565b5b600061149d84828501611464565b91505092915050565b600080604083850312156114bd576114bc611384565b5b60006114cb85828601611464565b92505060206114dc85828601611464565b9150509250929050565b60008115159050919050565b6114fb816114e6565b82525050565b600060208201905061151660008301846114f2565b92915050565b600081519050919050565b600082825260208201905092915050565b6000819050602082019050919050565b61155181611411565b82525050565b60006115638383611548565b60208301905092915050565b6000602082019050919050565b60006115878261151c565b6115918185611527565b935061159c83611538565b8060005b838110156115cd5781516115b48882611557565b97506115bf8361156f565b9250506001810190506115a0565b5085935050505092915050565b600060208201905081810360008301526115f4818461157c565b905092915050565b600080fd5b600080fd5b7f4e487b7100000000000000000000000000000000000000000000000000000000600052604160045260246000fd5b61163e8261130e565b810181811067ffffffffffffffff8211171561165d5761165c611606565b5b80604052505050565b600061167061137a565b905061167c8282611635565b919050565b600067ffffffffffffffff82111561169c5761169b611606565b5b6116a58261130e565b9050602081019050919050565b82818337600083830152505050565b60006116d46116cf84611681565b611666565b9050828152602081018484840111156116f0576116ef611601565b5b6116fb8482856116b2565b509392505050565b600082601f830112611718576117176115fc565b5b81356117288482602086016116c1565b91505092915050565b600080600080600060a0868803121561174d5761174c611384565b5b600061175b88828901611464565b955050602086013567ffffffffffffffff81111561177c5761177b611389565b5b61178888828901611703565b945050604086013567ffffffffffffffff8111156117a9576117a8611389565b5b6117b588828901611703565b935050606086013567ffffffffffffffff8111156117d6576117d5611389565b5b6117e288828901611703565b925050608086013567ffffffffffffffff81111561180357611802611389565b5b61180f88828901611703565b9150509295509295909350565b7f4e487b7100000000000000000000000000000000000000000000000000000000600052602260045260246000fd5b6000600282049050600182168061186357607f821691505b6020821081036118765761187561181c565b5b50919050565b7f4e487b7100000000000000000000000000000000000000000000000000000000600052603260045260246000fd5b7f4e487b7100000000000000000000000000000000000000000000000000000000600052601160045260246000fd5b60006118e58261138e565b91507fffffffffffffffffffffffffffffffffffffffffffffffffffffffffffffffff8203611917576119166118ab565b5b600182019050919050565b60008190508160005260206000209050919050565b60006020601f8301049050919050565b600082821b905092915050565b6000600883026119847fffffffffffffffffffffffffffffffffffffffffffffffffffffffffffffffff82611947565b61198e8683611947565b95508019841693508086168417925050509392505050565b6000819050919050565b60006119cb6119c66119c18461138e565b6119a6565b61138e565b9050919050565b6000819050919050565b6119e5836119b0565b6119f96119f1826119d2565b848454611954565b825550505050565b600090565b611a0e611a01565b611a198184846119dc565b505050565b5b81811015611a3d57611a32600082611a06565b600181019050611a1f565b5050565b601f821115611a8257611a5381611922565b611a5c84611937565b81016020851015611a6b578190505b611a7f611a7785611937565b830182611a1e565b50505b505050565b600082821c905092915050565b6000611aa560001984600802611a87565b1980831691505092915050565b6000611abe8383611a94565b9150826002028217905092915050565b611ad7826112c8565b67ffffffffffffffff811115611af057611aef611606565b5b611afa825461184b565b611b05828285611a41565b600060209050601f831160018114611b385760008415611b26578287015190505b611b308582611ab2565b865550611b98565b601f198416611b4686611922565b60005b82811015611b6e57848901518255600182019150602085019450602081019050611b49565b86831015611b8b5784890151611b87601f891682611a94565b8355505b6001600288020188555050505b50505050505056fea264697066735822122053ff0f82db49993b304185c852d4a912e78c561b1e10e4e3ac50d13977e8f16564736f6c63430008100033a264697066735822122080b2adbdbb43e9ae89bc8c3cdf1943a575f158597f4d5d9bab15b03fee1410bc64736f6c63430008100033",
  "immutableReferences": {},
  "source": "// SPDX-License-Identifier: GPL-3.0\npragma solidity ^0.8.0;\npragma experimental ABIEncoderV2;\n\nimport \"./GovernmentOfficer.sol\";\n\n\ncontract FactoryGovernmentOfficer {\n    address[] allOfficers;\n\n    function registerOfficer(address _walletAddress, string memory _email, string memory _name, \n    string memory _phoneNumber, string memory _employeeId) public returns (address) {\n        GovernmentOfficer newOfficer = new GovernmentOfficer();\n        newOfficer.setGovernmentOfficer(_walletAddress, _email, _name, \n        _phoneNumber, _employeeId);\n        allOfficers.push(_walletAddress);\n        return _walletAddress;\n    }\n\n    // function returnString memory() public returns (string memory) {\n    //     return \"HelloWorld\";\n    // }\n\n    // function returnInt() public returns (uint) {\n    //     return 10;\n    // }\n}",
  "sourcePath": "/home/aniketdatar/Desktop/Project/tendersystem-blockchain/contracts/FactoryGovernmentOfficer.sol",
  "compiler": {
    "name": "solc",
    "version": "0.8.16+commit.07a7930e.Emscripten.clang"
  },
  "schemaVersion": "3.4.9",
  "updatedAt": "2023-02-02T15:24:04.494Z",
  "devdoc": {
    "kind": "dev",
    "methods": {},
    "version": 1
  },
  "userdoc": {
    "kind": "user",
    "methods": {},
    "version": 1
  }
}