{
  "contractName": "FactoryContractor",
  "abi": [
    {
      "inputs": [
        {
          "internalType": "uint256",
          "name": "",
          "type": "uint256"
        }
      ],
      "name": "allContractors",
      "outputs": [
        {
          "internalType": "address",
          "name": "",
          "type": "address"
        }
      ],
      "stateMutability": "view",
      "type": "function"
    },
    {
      "inputs": [
        {
          "internalType": "address",
          "name": "_walletAddress",
          "type": "address"
        },
        {
          "internalType": "string",
          "name": "_email",
          "type": "string"
        },
        {
          "internalType": "string",
          "name": "_name",
          "type": "string"
        },
        {
          "internalType": "string",
          "name": "_phoneNumber",
          "type": "string"
        },
        {
          "internalType": "string",
          "name": "_panNumber",
          "type": "string"
        },
        {
          "internalType": "string",
          "name": "_gstNumber",
          "type": "string"
        }
      ],
      "name": "registerNewContractor",
      "outputs": [
        {
          "internalType": "bool",
          "name": "",
          "type": "bool"
        }
      ],
      "stateMutability": "nonpayable",
      "type": "function"
    }
  ],
  "bytecode": "0x608060405234801561001057600080fd5b506115b3806100206000396000f3fe608060405234801561001057600080fd5b50600436106100365760003560e01c80634a782bfa1461003b578063a2443e9a1461006b575b600080fd5b610055600480360381019061005091906103b4565b61009b565b60405161006291906104e8565b60405180910390f35b61008560048036038101906100809190610539565b6101b0565b6040516100929190610575565b60405180910390f35b6000806040516100aa906101ef565b604051809103906000f0801580156100c6573d6000803e3d6000fd5b5090508073ffffffffffffffffffffffffffffffffffffffff1663dfeb3cf88989898989896040518763ffffffff1660e01b815260040161010c9695949392919061060f565b600060405180830381600087803b15801561012657600080fd5b505af115801561013a573d6000803e3d6000fd5b505050506000889080600181540180825580915050600190039060005260206000200160009091909190916101000a81548173ffffffffffffffffffffffffffffffffffffffff021916908373ffffffffffffffffffffffffffffffffffffffff16021790555060019150509695505050505050565b600081815481106101c057600080fd5b906000526020600020016000915054906101000a900473ffffffffffffffffffffffffffffffffffffffff1681565b610eea8061069483390190565b6000604051905090565b600080fd5b600080fd5b600073ffffffffffffffffffffffffffffffffffffffff82169050919050565b600061023b82610210565b9050919050565b61024b81610230565b811461025657600080fd5b50565b60008135905061026881610242565b92915050565b600080fd5b600080fd5b6000601f19601f8301169050919050565b7f4e487b7100000000000000000000000000000000000000000000000000000000600052604160045260246000fd5b6102c182610278565b810181811067ffffffffffffffff821117156102e0576102df610289565b5b80604052505050565b60006102f36101fc565b90506102ff82826102b8565b919050565b600067ffffffffffffffff82111561031f5761031e610289565b5b61032882610278565b9050602081019050919050565b82818337600083830152505050565b600061035761035284610304565b6102e9565b90508281526020810184848401111561037357610372610273565b5b61037e848285610335565b509392505050565b600082601f83011261039b5761039a61026e565b5b81356103ab848260208601610344565b91505092915050565b60008060008060008060c087890312156103d1576103d0610206565b5b60006103df89828a01610259565b965050602087013567ffffffffffffffff811115610400576103ff61020b565b5b61040c89828a01610386565b955050604087013567ffffffffffffffff81111561042d5761042c61020b565b5b61043989828a01610386565b945050606087013567ffffffffffffffff81111561045a5761045961020b565b5b61046689828a01610386565b935050608087013567ffffffffffffffff8111156104875761048661020b565b5b61049389828a01610386565b92505060a087013567ffffffffffffffff8111156104b4576104b361020b565b5b6104c089828a01610386565b9150509295509295509295565b60008115159050919050565b6104e2816104cd565b82525050565b60006020820190506104fd60008301846104d9565b92915050565b6000819050919050565b61051681610503565b811461052157600080fd5b50565b6000813590506105338161050d565b92915050565b60006020828403121561054f5761054e610206565b5b600061055d84828501610524565b91505092915050565b61056f81610230565b82525050565b600060208201905061058a6000830184610566565b92915050565b600081519050919050565b600082825260208201905092915050565b60005b838110156105ca5780820151818401526020810190506105af565b60008484015250505050565b60006105e182610590565b6105eb818561059b565b93506105fb8185602086016105ac565b61060481610278565b840191505092915050565b600060c0820190506106246000830189610566565b818103602083015261063681886105d6565b9050818103604083015261064a81876105d6565b9050818103606083015261065e81866105d6565b9050818103608083015261067281856105d6565b905081810360a083015261068681846105d6565b905097965050505050505056fe608060405234801561001057600080fd5b50610eca806100206000396000f3fe608060405234801561001057600080fd5b50600436106100b45760003560e01c8063c007175f11610071578063c007175f146101a1578063c3a2a93a146101bd578063dfeb3cf8146101db578063e0124633146101f7578063e494015714610213578063ea86abc314610243576100b4565b8063125716d6146100b95780631ad86bf2146100e957806327340f84146100f3578063534f9c531461011157806356810be714610141578063791d508914610171575b600080fd5b6100d360048036038101906100ce91906107ff565b610273565b6040516100e09190610847565b60405180910390f35b6100f16102c9565b005b6100fb6102e6565b6040516101089190610920565b60405180910390f35b61012b600480360381019061012691906107ff565b610374565b6040516101389190610847565b60405180910390f35b61015b600480360381019061015691906107ff565b610394565b6040516101689190610847565b60405180910390f35b61018b600480360381019061018691906107ff565b6103b4565b6040516101989190610847565b60405180910390f35b6101bb60048036038101906101b691906107ff565b61040a565b005b6101c5610465565b6040516101d29190610920565b60405180910390f35b6101f560048036038101906101f09190610a88565b6104f3565b005b610211600480360381019061020c91906107ff565b6105a6565b005b61022d600480360381019061022891906107ff565b610601565b60405161023a9190610847565b60405180910390f35b61025d600480360381019061025891906107ff565b6106c7565b60405161026a9190610847565b60405180910390f35b6000600a60008373ffffffffffffffffffffffffffffffffffffffff1673ffffffffffffffffffffffffffffffffffffffff16815260200190815260200160002060009054906101000a900460ff169050919050565b6001600660006101000a81548160ff021916908315150217905550565b6060600780548060200260200160405190810160405280929190818152602001828054801561036a57602002820191906000526020600020905b8160009054906101000a900473ffffffffffffffffffffffffffffffffffffffff1673ffffffffffffffffffffffffffffffffffffffff1681526020019060010190808311610320575b5050505050905090565b600a6020528060005260406000206000915054906101000a900460ff1681565b60086020528060005260406000206000915054906101000a900460ff1681565b6000600860008373ffffffffffffffffffffffffffffffffffffffff1673ffffffffffffffffffffffffffffffffffffffff16815260200190815260200160002060009054906101000a900460ff169050919050565b6000600a60008373ffffffffffffffffffffffffffffffffffffffff1673ffffffffffffffffffffffffffffffffffffffff16815260200190815260200160002060006101000a81548160ff02191690831515021790555050565b606060098054806020026020016040519081016040528092919081815260200182805480156104e957602002820191906000526020600020905b8160009054906101000a900473ffffffffffffffffffffffffffffffffffffffff1673ffffffffffffffffffffffffffffffffffffffff168152602001906001019080831161049f575b5050505050905090565b856000806101000a81548173ffffffffffffffffffffffffffffffffffffffff021916908373ffffffffffffffffffffffffffffffffffffffff16021790555083600190816105429190610dc2565b5084600290816105529190610dc2565b5082600390816105629190610dc2565b5081600490816105729190610dc2565b5080600590816105829190610dc2565b506000600660006101000a81548160ff021916908315150217905550505050505050565b6001600860008373ffffffffffffffffffffffffffffffffffffffff1673ffffffffffffffffffffffffffffffffffffffff16815260200190815260200160002060006101000a81548160ff02191690831515021790555050565b60006007829080600181540180825580915050600190039060005260206000200160009091909190916101000a81548173ffffffffffffffffffffffffffffffffffffffff021916908373ffffffffffffffffffffffffffffffffffffffff1602179055506000600860008473ffffffffffffffffffffffffffffffffffffffff1673ffffffffffffffffffffffffffffffffffffffff16815260200190815260200160002060006101000a81548160ff02191690831515021790555060019050919050565b60006009829080600181540180825580915050600190039060005260206000200160009091909190916101000a81548173ffffffffffffffffffffffffffffffffffffffff021916908373ffffffffffffffffffffffffffffffffffffffff1602179055506001600a60008473ffffffffffffffffffffffffffffffffffffffff1673ffffffffffffffffffffffffffffffffffffffff16815260200190815260200160002060006101000a81548160ff02191690831515021790555060019050919050565b6000604051905090565b600080fd5b600080fd5b600073ffffffffffffffffffffffffffffffffffffffff82169050919050565b60006107cc826107a1565b9050919050565b6107dc816107c1565b81146107e757600080fd5b50565b6000813590506107f9816107d3565b92915050565b60006020828403121561081557610814610797565b5b6000610823848285016107ea565b91505092915050565b60008115159050919050565b6108418161082c565b82525050565b600060208201905061085c6000830184610838565b92915050565b600081519050919050565b600082825260208201905092915050565b6000819050602082019050919050565b610897816107c1565b82525050565b60006108a9838361088e565b60208301905092915050565b6000602082019050919050565b60006108cd82610862565b6108d7818561086d565b93506108e28361087e565b8060005b838110156109135781516108fa888261089d565b9750610905836108b5565b9250506001810190506108e6565b5085935050505092915050565b6000602082019050818103600083015261093a81846108c2565b905092915050565b600080fd5b600080fd5b6000601f19601f8301169050919050565b7f4e487b7100000000000000000000000000000000000000000000000000000000600052604160045260246000fd5b6109958261094c565b810181811067ffffffffffffffff821117156109b4576109b361095d565b5b80604052505050565b60006109c761078d565b90506109d3828261098c565b919050565b600067ffffffffffffffff8211156109f3576109f261095d565b5b6109fc8261094c565b9050602081019050919050565b82818337600083830152505050565b6000610a2b610a26846109d8565b6109bd565b905082815260208101848484011115610a4757610a46610947565b5b610a52848285610a09565b509392505050565b600082601f830112610a6f57610a6e610942565b5b8135610a7f848260208601610a18565b91505092915050565b60008060008060008060c08789031215610aa557610aa4610797565b5b6000610ab389828a016107ea565b965050602087013567ffffffffffffffff811115610ad457610ad361079c565b5b610ae089828a01610a5a565b955050604087013567ffffffffffffffff811115610b0157610b0061079c565b5b610b0d89828a01610a5a565b945050606087013567ffffffffffffffff811115610b2e57610b2d61079c565b5b610b3a89828a01610a5a565b935050608087013567ffffffffffffffff811115610b5b57610b5a61079c565b5b610b6789828a01610a5a565b92505060a087013567ffffffffffffffff811115610b8857610b8761079c565b5b610b9489828a01610a5a565b9150509295509295509295565b600081519050919050565b7f4e487b7100000000000000000000000000000000000000000000000000000000600052602260045260246000fd5b60006002820490506001821680610bf357607f821691505b602082108103610c0657610c05610bac565b5b50919050565b60008190508160005260206000209050919050565b60006020601f8301049050919050565b600082821b905092915050565b600060088302610c6e7fffffffffffffffffffffffffffffffffffffffffffffffffffffffffffffffff82610c31565b610c788683610c31565b95508019841693508086168417925050509392505050565b6000819050919050565b6000819050919050565b6000610cbf610cba610cb584610c90565b610c9a565b610c90565b9050919050565b6000819050919050565b610cd983610ca4565b610ced610ce582610cc6565b848454610c3e565b825550505050565b600090565b610d02610cf5565b610d0d818484610cd0565b505050565b5b81811015610d3157610d26600082610cfa565b600181019050610d13565b5050565b601f821115610d7657610d4781610c0c565b610d5084610c21565b81016020851015610d5f578190505b610d73610d6b85610c21565b830182610d12565b50505b505050565b600082821c905092915050565b6000610d9960001984600802610d7b565b1980831691505092915050565b6000610db28383610d88565b9150826002028217905092915050565b610dcb82610ba1565b67ffffffffffffffff811115610de457610de361095d565b5b610dee8254610bdb565b610df9828285610d35565b600060209050601f831160018114610e2c5760008415610e1a578287015190505b610e248582610da6565b865550610e8c565b601f198416610e3a86610c0c565b60005b82811015610e6257848901518255600182019150602085019450602081019050610e3d565b86831015610e7f5784890151610e7b601f891682610d88565b8355505b6001600288020188555050505b50505050505056fea2646970667358221220e8751b089b077b488718825df65ab37b60c956a5d00e6635e8d5f543d9f92bca64736f6c63430008100033a26469706673582212204ed625142e294ddf1f8a1808881c60de469f9337e29963d2ff976c5fb8c4eaa764736f6c63430008100033",
  "immutableReferences": {},
  "source": "// SPDX-License-Identifier: GPL-3.0\npragma solidity ^0.8.0;\n\nimport \"./Contractor.sol\";\n\ncontract FactoryContractor {\n    address[] public allContractors;\n    \n    //----do not use---- adds the new contract to same byte code--useless shit.\n    function registerNewContractor(address _walletAddress, string memory _email, string memory _name,\n    string memory _phoneNumber, string memory _panNumber, string memory _gstNumber) public returns (bool) {\n        Contractor contractor = new Contractor();\n        contractor.setContractor(_walletAddress, _email, _name,\n        _phoneNumber, _panNumber, _gstNumber);\n        allContractors.push(_walletAddress);\n        return true;\n    }\n}",
  "sourcePath": "/home/aniketdatar/Desktop/Project/tendersystem-blockchain/contracts/FactoryContractor.sol",
  "compiler": {
    "name": "solc",
    "version": "0.8.16+commit.07a7930e.Emscripten.clang"
  },
  "schemaVersion": "3.4.9",
  "updatedAt": "2023-02-02T15:24:04.493Z",
  "devdoc": {
    "kind": "dev",
    "methods": {},
    "version": 1
  },
  "userdoc": {
    "kind": "user",
    "methods": {},
    "version": 1
  }
}