{
  "contractName": "GovernmentOfficerRepo",
  "abi": [
    {
      "inputs": [
        {
          "internalType": "address",
          "name": "",
          "type": "address"
        }
      ],
      "name": "officerToVerifier",
      "outputs": [
        {
          "internalType": "address",
          "name": "",
          "type": "address"
        }
      ],
      "stateMutability": "view",
      "type": "function",
      "constant": true
    },
    {
      "inputs": [
        {
          "internalType": "uint256",
          "name": "",
          "type": "uint256"
        }
      ],
      "name": "officers",
      "outputs": [
        {
          "internalType": "address",
          "name": "",
          "type": "address"
        }
      ],
      "stateMutability": "view",
      "type": "function",
      "constant": true
    },
    {
      "inputs": [
        {
          "internalType": "uint256",
          "name": "",
          "type": "uint256"
        }
      ],
      "name": "verifiedOfficers",
      "outputs": [
        {
          "internalType": "address",
          "name": "",
          "type": "address"
        }
      ],
      "stateMutability": "view",
      "type": "function",
      "constant": true
    },
    {
      "inputs": [
        {
          "internalType": "address",
          "name": "",
          "type": "address"
        }
      ],
      "name": "verifiedStatus",
      "outputs": [
        {
          "internalType": "bool",
          "name": "",
          "type": "bool"
        }
      ],
      "stateMutability": "view",
      "type": "function",
      "constant": true
    },
    {
      "inputs": [
        {
          "internalType": "address",
          "name": "",
          "type": "address"
        }
      ],
      "name": "walletAddressToNode",
      "outputs": [
        {
          "internalType": "address",
          "name": "",
          "type": "address"
        }
      ],
      "stateMutability": "view",
      "type": "function",
      "constant": true
    },
    {
      "inputs": [
        {
          "internalType": "address",
          "name": "walletAddress",
          "type": "address"
        },
        {
          "internalType": "address",
          "name": "nodeAddress",
          "type": "address"
        }
      ],
      "name": "newOfficer",
      "outputs": [
        {
          "internalType": "bool",
          "name": "",
          "type": "bool"
        }
      ],
      "stateMutability": "nonpayable",
      "type": "function"
    },
    {
      "inputs": [
        {
          "internalType": "address",
          "name": "walletAddress",
          "type": "address"
        },
        {
          "internalType": "address",
          "name": "nodeAddress",
          "type": "address"
        }
      ],
      "name": "mapWalletAddressToNode",
      "outputs": [],
      "stateMutability": "nonpayable",
      "type": "function"
    },
    {
      "inputs": [
        {
          "internalType": "address",
          "name": "walletAddress",
          "type": "address"
        }
      ],
      "name": "getNodeAddress",
      "outputs": [
        {
          "internalType": "address",
          "name": "",
          "type": "address"
        }
      ],
      "stateMutability": "view",
      "type": "function",
      "constant": true
    },
    {
      "inputs": [
        {
          "internalType": "address",
          "name": "officerAddress",
          "type": "address"
        },
        {
          "internalType": "address",
          "name": "verifierAdress",
          "type": "address"
        }
      ],
      "name": "verifyOfficer",
      "outputs": [],
      "stateMutability": "nonpayable",
      "type": "function"
    },
    {
      "inputs": [],
      "name": "getOfficersCount",
      "outputs": [
        {
          "internalType": "uint256",
          "name": "",
          "type": "uint256"
        }
      ],
      "stateMutability": "view",
      "type": "function",
      "constant": true
    },
    {
      "inputs": [],
      "name": "getVerifiedOfficersCount",
      "outputs": [
        {
          "internalType": "uint256",
          "name": "",
          "type": "uint256"
        }
      ],
      "stateMutability": "view",
      "type": "function",
      "constant": true
    },
    {
      "inputs": [],
      "name": "getOfficers",
      "outputs": [
        {
          "internalType": "address[]",
          "name": "",
          "type": "address[]"
        }
      ],
      "stateMutability": "view",
      "type": "function",
      "constant": true
    },
    {
      "inputs": [],
      "name": "getVerifiedOfficers",
      "outputs": [
        {
          "internalType": "address[]",
          "name": "",
          "type": "address[]"
        }
      ],
      "stateMutability": "view",
      "type": "function",
      "constant": true
    },
    {
      "inputs": [
        {
          "internalType": "address",
          "name": "officerAddress",
          "type": "address"
        }
      ],
      "name": "getVerifier",
      "outputs": [
        {
          "internalType": "address",
          "name": "",
          "type": "address"
        }
      ],
      "stateMutability": "view",
      "type": "function",
      "constant": true
    },
    {
      "inputs": [
        {
          "internalType": "address",
          "name": "officerAddress",
          "type": "address"
        }
      ],
      "name": "getVerifiedStatus",
      "outputs": [
        {
          "internalType": "bool",
          "name": "",
          "type": "bool"
        }
      ],
      "stateMutability": "view",
      "type": "function",
      "constant": true
    },
    {
      "inputs": [
        {
          "internalType": "uint256",
          "name": "index",
          "type": "uint256"
        }
      ],
      "name": "getUnverifiedOfficers",
      "outputs": [
        {
          "internalType": "address",
          "name": "",
          "type": "address"
        }
      ],
      "stateMutability": "view",
      "type": "function",
      "constant": true
    }
  ],
  "bytecode": "0x608060405234801561001057600080fd5b50610d78806100206000396000f3fe608060405234801561001057600080fd5b50600436106101005760003560e01c80635306fa8b11610097578063e4974ca911610066578063e4974ca9146102e7578063e544a7fd14610305578063ec54b7f914610335578063fac0d0901461036557610100565b80635306fa8b146102395780636b291d9f146102695780636f6f772114610299578063d6de1dcb146102b757610100565b80631142f021116100d35780631142f0211461018d57806311f217c7146101bd5780631dac6a30146101ed57806323ff85f91461021d57610100565b8063059ce95d146101055780630cc7bf9c146101355780630f7151dc1461015357806310ffb5dc14610171575b600080fd5b61011f600480360381019061011a9190610ad9565b610395565b60405161012c9190610b15565b60405180910390f35b61013d6103fe565b60405161014a9190610b49565b60405180910390f35b61015b61040b565b6040516101689190610c22565b60405180910390f35b61018b60048036038101906101869190610c44565b610499565b005b6101a760048036038101906101a29190610cb0565b6105d6565b6040516101b49190610b15565b60405180910390f35b6101d760048036038101906101d29190610ad9565b6106c7565b6040516101e49190610b15565b60405180910390f35b61020760048036038101906102029190610cb0565b610730565b6040516102149190610b15565b60405180910390f35b61023760048036038101906102329190610c44565b61076f565b005b610253600480360381019061024e9190610ad9565b6107f1565b6040516102609190610cf8565b60405180910390f35b610283600480360381019061027e9190610cb0565b610847565b6040516102909190610b15565b60405180910390f35b6102a1610886565b6040516102ae9190610c22565b60405180910390f35b6102d160048036038101906102cc9190610ad9565b610914565b6040516102de9190610b15565b60405180910390f35b6102ef610947565b6040516102fc9190610b49565b60405180910390f35b61031f600480360381019061031a9190610ad9565b610953565b60405161032c9190610b15565b60405180910390f35b61034f600480360381019061034a9190610c44565b610986565b60405161035c9190610cf8565b60405180910390f35b61037f600480360381019061037a9190610ad9565b610a56565b60405161038c9190610cf8565b60405180910390f35b6000600360008373ffffffffffffffffffffffffffffffffffffffff1673ffffffffffffffffffffffffffffffffffffffff16815260200190815260200160002060009054906101000a900473ffffffffffffffffffffffffffffffffffffffff169050919050565b6000600180549050905090565b6060600080548060200260200160405190810160405280929190818152602001828054801561048f57602002820191906000526020600020905b8160009054906101000a900473ffffffffffffffffffffffffffffffffffffffff1673ffffffffffffffffffffffffffffffffffffffff1681526020019060010190808311610445575b5050505050905090565b6001829080600181540180825580915050600190039060005260206000200160009091909190916101000a81548173ffffffffffffffffffffffffffffffffffffffff021916908373ffffffffffffffffffffffffffffffffffffffff1602179055506001600260008473ffffffffffffffffffffffffffffffffffffffff1673ffffffffffffffffffffffffffffffffffffffff16815260200190815260200160002060006101000a81548160ff02191690831515021790555080600360008473ffffffffffffffffffffffffffffffffffffffff1673ffffffffffffffffffffffffffffffffffffffff16815260200190815260200160002060006101000a81548173ffffffffffffffffffffffffffffffffffffffff021916908373ffffffffffffffffffffffffffffffffffffffff1602179055505050565b600080805490508211156105e957600080fd5b60026000808481548110610600576105ff610d13565b5b9060005260206000200160009054906101000a900473ffffffffffffffffffffffffffffffffffffffff1673ffffffffffffffffffffffffffffffffffffffff1673ffffffffffffffffffffffffffffffffffffffff16815260200190815260200160002060009054906101000a900460ff166106bd576000828154811061068b5761068a610d13565b5b9060005260206000200160009054906101000a900473ffffffffffffffffffffffffffffffffffffffff1690506106c2565b600080fd5b919050565b6000600460008373ffffffffffffffffffffffffffffffffffffffff1673ffffffffffffffffffffffffffffffffffffffff16815260200190815260200160002060009054906101000a900473ffffffffffffffffffffffffffffffffffffffff169050919050565b6001818154811061074057600080fd5b906000526020600020016000915054906101000a900473ffffffffffffffffffffffffffffffffffffffff1681565b80600460008473ffffffffffffffffffffffffffffffffffffffff1673ffffffffffffffffffffffffffffffffffffffff16815260200190815260200160002060006101000a81548173ffffffffffffffffffffffffffffffffffffffff021916908373ffffffffffffffffffffffffffffffffffffffff1602179055505050565b6000600260008373ffffffffffffffffffffffffffffffffffffffff1673ffffffffffffffffffffffffffffffffffffffff16815260200190815260200160002060009054906101000a900460ff169050919050565b6000818154811061085757600080fd5b906000526020600020016000915054906101000a900473ffffffffffffffffffffffffffffffffffffffff1681565b6060600180548060200260200160405190810160405280929190818152602001828054801561090a57602002820191906000526020600020905b8160009054906101000a900473ffffffffffffffffffffffffffffffffffffffff1673ffffffffffffffffffffffffffffffffffffffff16815260200190600101908083116108c0575b5050505050905090565b60036020528060005260406000206000915054906101000a900473ffffffffffffffffffffffffffffffffffffffff1681565b60008080549050905090565b60046020528060005260406000206000915054906101000a900473ffffffffffffffffffffffffffffffffffffffff1681565b600080829080600181540180825580915050600190039060005260206000200160009091909190916101000a81548173ffffffffffffffffffffffffffffffffffffffff021916908373ffffffffffffffffffffffffffffffffffffffff1602179055506000600260008473ffffffffffffffffffffffffffffffffffffffff1673ffffffffffffffffffffffffffffffffffffffff16815260200190815260200160002060006101000a81548160ff021916908315150217905550610a4c838361076f565b6001905092915050565b60026020528060005260406000206000915054906101000a900460ff1681565b600080fd5b600073ffffffffffffffffffffffffffffffffffffffff82169050919050565b6000610aa682610a7b565b9050919050565b610ab681610a9b565b8114610ac157600080fd5b50565b600081359050610ad381610aad565b92915050565b600060208284031215610aef57610aee610a76565b5b6000610afd84828501610ac4565b91505092915050565b610b0f81610a9b565b82525050565b6000602082019050610b2a6000830184610b06565b92915050565b6000819050919050565b610b4381610b30565b82525050565b6000602082019050610b5e6000830184610b3a565b92915050565b600081519050919050565b600082825260208201905092915050565b6000819050602082019050919050565b610b9981610a9b565b82525050565b6000610bab8383610b90565b60208301905092915050565b6000602082019050919050565b6000610bcf82610b64565b610bd98185610b6f565b9350610be483610b80565b8060005b83811015610c15578151610bfc8882610b9f565b9750610c0783610bb7565b925050600181019050610be8565b5085935050505092915050565b60006020820190508181036000830152610c3c8184610bc4565b905092915050565b60008060408385031215610c5b57610c5a610a76565b5b6000610c6985828601610ac4565b9250506020610c7a85828601610ac4565b9150509250929050565b610c8d81610b30565b8114610c9857600080fd5b50565b600081359050610caa81610c84565b92915050565b600060208284031215610cc657610cc5610a76565b5b6000610cd484828501610c9b565b91505092915050565b60008115159050919050565b610cf281610cdd565b82525050565b6000602082019050610d0d6000830184610ce9565b92915050565b7f4e487b7100000000000000000000000000000000000000000000000000000000600052603260045260246000fdfea2646970667358221220e5f09c86f8c1cec01fb83a032ea80e87e2d9aaff1ea7280c3cdc82c550b40bb964736f6c63430008100033",
  "immutableReferences": {},
  "source": "// SPDX-License-Identifier: GPL-3.0\npragma solidity ^0.8.0;\npragma experimental ABIEncoderV2;\n\n//import \"./GovernmentOfficer.sol\";\n\n\ncontract GovernmentOfficerRepo {\n    address[] public officers; //all officers verified + unverified\n    address[] public verifiedOfficers;\n    mapping (address=>bool) public verifiedStatus; //true=>verified, false => unverified\n    mapping (address=>address) public officerToVerifier;\n    mapping (address=>address) public walletAddressToNode;\n\n    //----do not use---- adds the new contract to same byte code\n    // function registerOfficer(address _walletAddress, string _email, string _name, \n    // string _phoneNumber, string _employeeId) public returns (address) {\n    //     GovernmentOfficer officer = new GovernmentOfficer();\n    //     officer.setGovernmentOfficer(_walletAddress, _email, _name, \n    //     _phoneNumber, _employeeId);\n    //     this.newOfficer(address(officer));\n    //     return officer;\n    // }\n\n    function newOfficer(address walletAddress, address nodeAddress) public returns (bool) {\n        officers.push(nodeAddress);\n        verifiedStatus[nodeAddress] = false;\n        mapWalletAddressToNode(walletAddress, nodeAddress);\n        return true;\n    }\n    \n    function mapWalletAddressToNode(address walletAddress, address nodeAddress) public {\n        walletAddressToNode[walletAddress] = nodeAddress;\n    }\n\n    function getNodeAddress(address walletAddress) public view returns (address) {\n        return walletAddressToNode[walletAddress];\n    }\n    \n    function verifyOfficer(address officerAddress, address verifierAdress) public {\n        verifiedOfficers.push(officerAddress);\n        verifiedStatus[officerAddress] = true;\n        officerToVerifier[officerAddress] = verifierAdress;\n    }\n    \n    function getOfficersCount() public view returns (uint256) {\n        return officers.length;\n    }\n\n    function getVerifiedOfficersCount() public view returns (uint256) {\n        return verifiedOfficers.length;\n    }\n\n    function getOfficers () public view returns (address[] memory) {\n        return officers;\n    }\n\n    function getVerifiedOfficers () public view returns (address[] memory) {\n        return verifiedOfficers;\n    }\n\n    function getVerifier(address officerAddress) public view returns (address) {\n        return officerToVerifier[officerAddress];\n    }\n\n    function getVerifiedStatus(address officerAddress) public view returns (bool) {\n        return verifiedStatus[officerAddress];\n    }\n\n    function getUnverifiedOfficers(uint256 index) public view returns (address) {\n        //loop at web3\n        if (index > officers.length) revert();\n        if (!verifiedStatus[officers[index]]) {\n            return officers[index]; \n        }\n        revert();\n    }\n    \n}\n",
  "sourcePath": "/home/aniketdatar/Desktop/Project/tendersystem-blockchain/contracts/GovernmentOfficerRepo.sol",
  "compiler": {
    "name": "solc",
    "version": "0.8.16+commit.07a7930e.Emscripten.clang"
  },
  "schemaVersion": "3.4.9",
  "updatedAt": "2023-02-06T17:22:58.824Z",
  "networkType": "ethereum",
  "devdoc": {
    "kind": "dev",
    "methods": {},
    "version": 1
  },
  "userdoc": {
    "kind": "user",
    "methods": {},
    "version": 1
  }
}