{
  "contractName": "Main",
  "abi": [
    {
      "inputs": [],
      "name": "getAllTenders",
      "outputs": [
        {
          "internalType": "address[]",
          "name": "",
          "type": "address[]"
        }
      ],
      "stateMutability": "nonpayable",
      "type": "function"
    },
    {
      "inputs": [],
      "name": "getAllOngoingContracts",
      "outputs": [
        {
          "internalType": "address[]",
          "name": "",
          "type": "address[]"
        }
      ],
      "stateMutability": "nonpayable",
      "type": "function"
    }
  ],
  "bytecode": "0x608060405234801561001057600080fd5b506101c9806100206000396000f3fe608060405234801561001057600080fd5b50600436106100365760003560e01c80632358c0461461003b578063ab0b593714610059575b600080fd5b610043610077565b6040516100509190610171565b60405180910390f35b61006161007c565b60405161006e9190610171565b60405180910390f35b606090565b606090565b600081519050919050565b600082825260208201905092915050565b6000819050602082019050919050565b600073ffffffffffffffffffffffffffffffffffffffff82169050919050565b60006100d8826100ad565b9050919050565b6100e8816100cd565b82525050565b60006100fa83836100df565b60208301905092915050565b6000602082019050919050565b600061011e82610081565b610128818561008c565b93506101338361009d565b8060005b8381101561016457815161014b88826100ee565b975061015683610106565b925050600181019050610137565b5085935050505092915050565b6000602082019050818103600083015261018b8184610113565b90509291505056fea2646970667358221220eafa01a0163ea1406a60aa7dd008871a83a5f50ae2efc12b6d0d7473138d9c2d64736f6c63430008100033",
  "immutableReferences": {},
  "source": "// SPDX-License-Identifier: GPL-3.0\npragma solidity ^0.8.0;\npragma experimental ABIEncoderV2;\n\ncontract Main{\n    \n    function encrypt(address userAddress, string memory  role) internal returns (string memory ){\n    }\n\n    function decrypt(string memory  token) internal returns (address){\n    }\n\n    // comman man => extra fields to fetch\n    function getAllTenders() public returns (address[] memory ){\n    }\n\n    function getAllOngoingContracts() public returns (address[] memory){\n    }\n}",
  "sourcePath": "/home/aniketdatar/Desktop/Project/tendersystem-blockchain/contracts/Main.sol",
  "compiler": {
    "name": "solc",
    "version": "0.8.16+commit.07a7930e.Emscripten.clang"
  },
  "schemaVersion": "3.4.9",
  "updatedAt": "2023-02-02T15:24:04.505Z",
  "devdoc": {
    "kind": "dev",
    "methods": {},
    "version": 1
  },
  "userdoc": {
    "kind": "user",
    "methods": {},
    "version": 1
  }
}