{
  "contractName": "SpecialOfficer",
  "abi": [
    {
      "inputs": [
        {
          "internalType": "address",
          "name": "_walletAddress",
          "type": "address"
        },
        {
          "internalType": "string",
          "name": "_email",
          "type": "string"
        },
        {
          "internalType": "string",
          "name": "_phoneNumber",
          "type": "string"
        },
        {
          "internalType": "string",
          "name": "_name",
          "type": "string"
        },
        {
          "internalType": "string",
          "name": "_employeeId",
          "type": "string"
        }
      ],
      "stateMutability": "nonpayable",
      "type": "constructor"
    },
    {
      "inputs": [],
      "name": "getAllOngoingContracts",
      "outputs": [
        {
          "internalType": "address[]",
          "name": "",
          "type": "address[]"
        }
      ],
      "stateMutability": "nonpayable",
      "type": "function"
    },
    {
      "inputs": [],
      "name": "getAllTenders",
      "outputs": [
        {
          "internalType": "address[]",
          "name": "",
          "type": "address[]"
        }
      ],
      "stateMutability": "nonpayable",
      "type": "function"
    },
    {
      "inputs": [
        {
          "internalType": "address",
          "name": "userAddress",
          "type": "address"
        },
        {
          "internalType": "string",
          "name": "role",
          "type": "string"
        }
      ],
      "name": "login",
      "outputs": [
        {
          "internalType": "string",
          "name": "",
          "type": "string"
        }
      ],
      "stateMutability": "nonpayable",
      "type": "function"
    },
    {
      "inputs": [],
      "name": "logout",
      "outputs": [
        {
          "internalType": "bool",
          "name": "",
          "type": "bool"
        }
      ],
      "stateMutability": "nonpayable",
      "type": "function"
    }
  ],
  "bytecode": "0x60806040523480156200001157600080fd5b5060405162000bfb38038062000bfb8339818101604052810190620000379190620002c2565b846000806101000a81548173ffffffffffffffffffffffffffffffffffffffff021916908373ffffffffffffffffffffffffffffffffffffffff160217905550836001908162000088919062000611565b5082600290816200009a919062000611565b508160039081620000ac919062000611565b508060049081620000be919062000611565b505050505050620006f8565b6000604051905090565b600080fd5b600080fd5b600073ffffffffffffffffffffffffffffffffffffffff82169050919050565b60006200010b82620000de565b9050919050565b6200011d81620000fe565b81146200012957600080fd5b50565b6000815190506200013d8162000112565b92915050565b600080fd5b600080fd5b6000601f19601f8301169050919050565b7f4e487b7100000000000000000000000000000000000000000000000000000000600052604160045260246000fd5b62000198826200014d565b810181811067ffffffffffffffff82111715620001ba57620001b96200015e565b5b80604052505050565b6000620001cf620000ca565b9050620001dd82826200018d565b919050565b600067ffffffffffffffff8211156200020057620001ff6200015e565b5b6200020b826200014d565b9050602081019050919050565b60005b83811015620002385780820151818401526020810190506200021b565b60008484015250505050565b60006200025b6200025584620001e2565b620001c3565b9050828152602081018484840111156200027a576200027962000148565b5b6200028784828562000218565b509392505050565b600082601f830112620002a757620002a662000143565b5b8151620002b984826020860162000244565b91505092915050565b600080600080600060a08688031215620002e157620002e0620000d4565b5b6000620002f1888289016200012c565b955050602086015167ffffffffffffffff811115620003155762000314620000d9565b5b62000323888289016200028f565b945050604086015167ffffffffffffffff811115620003475762000346620000d9565b5b62000355888289016200028f565b935050606086015167ffffffffffffffff811115620003795762000378620000d9565b5b62000387888289016200028f565b925050608086015167ffffffffffffffff811115620003ab57620003aa620000d9565b5b620003b9888289016200028f565b9150509295509295909350565b600081519050919050565b7f4e487b7100000000000000000000000000000000000000000000000000000000600052602260045260246000fd5b600060028204905060018216806200041957607f821691505b6020821081036200042f576200042e620003d1565b5b50919050565b60008190508160005260206000209050919050565b60006020601f8301049050919050565b600082821b905092915050565b600060088302620004997fffffffffffffffffffffffffffffffffffffffffffffffffffffffffffffffff826200045a565b620004a586836200045a565b95508019841693508086168417925050509392505050565b6000819050919050565b6000819050919050565b6000620004f2620004ec620004e684620004bd565b620004c7565b620004bd565b9050919050565b6000819050919050565b6200050e83620004d1565b620005266200051d82620004f9565b84845462000467565b825550505050565b600090565b6200053d6200052e565b6200054a81848462000503565b505050565b5b8181101562000572576200056660008262000533565b60018101905062000550565b5050565b601f821115620005c1576200058b8162000435565b62000596846200044a565b81016020851015620005a6578190505b620005be620005b5856200044a565b8301826200054f565b50505b505050565b600082821c905092915050565b6000620005e660001984600802620005c6565b1980831691505092915050565b6000620006018383620005d3565b9150826002028217905092915050565b6200061c82620003c6565b67ffffffffffffffff8111156200063857620006376200015e565b5b62000644825462000400565b6200065182828562000576565b600060209050601f83116001811462000689576000841562000674578287015190505b620006808582620005f3565b865550620006f0565b601f198416620006998662000435565b60005b82811015620006c3578489015182556001820191506020850194506020810190506200069c565b86831015620006e35784890151620006df601f891682620005d3565b8355505b6001600288020188555050505b505050505050565b6104f380620007086000396000f3fe608060405234801561001057600080fd5b506004361061004c5760003560e01c80631f3c99c3146100515780632358c0461461006f5780632f19d50b1461008d578063ab0b5937146100bd575b600080fd5b6100596100db565b604051610066919061010d565b60405180910390f35b6100776100e0565b6040516100849190610218565b60405180910390f35b6100a760048036038101906100a291906103c0565b6100e5565b6040516100b4919061049b565b60405180910390f35b6100c56100ed565b6040516100d29190610218565b60405180910390f35b600090565b606090565b606092915050565b606090565b60008115159050919050565b610107816100f2565b82525050565b600060208201905061012260008301846100fe565b92915050565b600081519050919050565b600082825260208201905092915050565b6000819050602082019050919050565b600073ffffffffffffffffffffffffffffffffffffffff82169050919050565b600061017f82610154565b9050919050565b61018f81610174565b82525050565b60006101a18383610186565b60208301905092915050565b6000602082019050919050565b60006101c582610128565b6101cf8185610133565b93506101da83610144565b8060005b8381101561020b5781516101f28882610195565b97506101fd836101ad565b9250506001810190506101de565b5085935050505092915050565b6000602082019050818103600083015261023281846101ba565b905092915050565b6000604051905090565b600080fd5b600080fd5b61025781610174565b811461026257600080fd5b50565b6000813590506102748161024e565b92915050565b600080fd5b600080fd5b6000601f19601f8301169050919050565b7f4e487b7100000000000000000000000000000000000000000000000000000000600052604160045260246000fd5b6102cd82610284565b810181811067ffffffffffffffff821117156102ec576102eb610295565b5b80604052505050565b60006102ff61023a565b905061030b82826102c4565b919050565b600067ffffffffffffffff82111561032b5761032a610295565b5b61033482610284565b9050602081019050919050565b82818337600083830152505050565b600061036361035e84610310565b6102f5565b90508281526020810184848401111561037f5761037e61027f565b5b61038a848285610341565b509392505050565b600082601f8301126103a7576103a661027a565b5b81356103b7848260208601610350565b91505092915050565b600080604083850312156103d7576103d6610244565b5b60006103e585828601610265565b925050602083013567ffffffffffffffff81111561040657610405610249565b5b61041285828601610392565b9150509250929050565b600081519050919050565b600082825260208201905092915050565b60005b8381101561045657808201518184015260208101905061043b565b60008484015250505050565b600061046d8261041c565b6104778185610427565b9350610487818560208601610438565b61049081610284565b840191505092915050565b600060208201905081810360008301526104b58184610462565b90509291505056fea26469706673582212201029cec7fd78ab07b0acd98589584ab9ab150f2581a6acdda6f514ad9a6be80464736f6c63430008100033",
  "immutableReferences": {},
  "source": "// SPDX-License-Identifier: GPL-3.0\npragma solidity ^0.8.0;\npragma experimental ABIEncoderV2;\n\nimport \"./Main.sol\";\n\n\ncontract SpecialOfficer is Main {\n    \n    address walletAddress;\n    string email;\n    string phoneNumber;\n    string name;\n    string employeeId; \n\n    constructor (address _walletAddress, string memory  _email, string memory  _phoneNumber, \n    string memory  _name, string memory  _employeeId) {\n        walletAddress = _walletAddress;\n        email = _email;\n        phoneNumber = _phoneNumber;\n        name = _name;\n        employeeId = _employeeId;\n    }\n\n    function login(address userAddress, string memory  role) public  returns (string memory ) {\n    }\n\n    function logout() public returns (bool) {\n\n    }\n}",
  "sourcePath": "/home/aniketdatar/Desktop/Project/tendersystem-blockchain/contracts/SpecialOfficer.sol",
  "compiler": {
    "name": "solc",
    "version": "0.8.16+commit.07a7930e.Emscripten.clang"
  },
  "schemaVersion": "3.4.9",
  "updatedAt": "2023-02-02T15:24:04.508Z",
  "devdoc": {
    "kind": "dev",
    "methods": {},
    "version": 1
  },
  "userdoc": {
    "kind": "user",
    "methods": {},
    "version": 1
  }
}