{
  "contractName": "TenderRepo",
  "abi": [
    {
      "inputs": [
        {
          "internalType": "address",
          "name": "",
          "type": "address"
        }
      ],
      "name": "tenderMapping",
      "outputs": [
        {
          "internalType": "enum TenderRepo.TenderStatus",
          "name": "",
          "type": "uint8"
        }
      ],
      "stateMutability": "view",
      "type": "function",
      "constant": true
    },
    {
      "inputs": [
        {
          "internalType": "uint256",
          "name": "",
          "type": "uint256"
        }
      ],
      "name": "tenders",
      "outputs": [
        {
          "internalType": "address",
          "name": "",
          "type": "address"
        }
      ],
      "stateMutability": "view",
      "type": "function",
      "constant": true
    },
    {
      "inputs": [
        {
          "internalType": "address",
          "name": "tenderToAppend",
          "type": "address"
        }
      ],
      "name": "newTender",
      "outputs": [
        {
          "internalType": "bool",
          "name": "",
          "type": "bool"
        }
      ],
      "stateMutability": "nonpayable",
      "type": "function"
    },
    {
      "inputs": [
        {
          "internalType": "address",
          "name": "tenderAddress",
          "type": "address"
        }
      ],
      "name": "getTenderStatus",
      "outputs": [
        {
          "internalType": "enum TenderRepo.TenderStatus",
          "name": "",
          "type": "uint8"
        }
      ],
      "stateMutability": "view",
      "type": "function",
      "constant": true
    },
    {
      "inputs": [],
      "name": "getAllTenders",
      "outputs": [
        {
          "internalType": "address[]",
          "name": "",
          "type": "address[]"
        }
      ],
      "stateMutability": "view",
      "type": "function",
      "constant": true
    },
    {
      "inputs": [],
      "name": "getTenderCount",
      "outputs": [
        {
          "internalType": "uint256",
          "name": "",
          "type": "uint256"
        }
      ],
      "stateMutability": "view",
      "type": "function",
      "constant": true
    },
    {
      "inputs": [
        {
          "internalType": "uint256",
          "name": "index",
          "type": "uint256"
        }
      ],
      "name": "getOngoingTenders",
      "outputs": [
        {
          "internalType": "address",
          "name": "",
          "type": "address"
        }
      ],
      "stateMutability": "view",
      "type": "function",
      "constant": true
    },
    {
      "inputs": [
        {
          "internalType": "address",
          "name": "tenderAddress",
          "type": "address"
        }
      ],
      "name": "updateTenderStatusToBiddingComplete",
      "outputs": [],
      "stateMutability": "nonpayable",
      "type": "function"
    },
    {
      "inputs": [
        {
          "internalType": "address",
          "name": "tenderAddress",
          "type": "address"
        }
      ],
      "name": "updateTenderStatusToDeployed",
      "outputs": [],
      "stateMutability": "nonpayable",
      "type": "function"
    }
  ],
  "bytecode": "0x608060405234801561001057600080fd5b50610961806100206000396000f3fe608060405234801561001057600080fd5b50600436106100935760003560e01c8063465e1def11610066578063465e1def1461011e5780635850b3831461014e57806380650c861461016c5780639f53827f1461019c578063b6af93c8146101cc57610093565b806304a01abe146100985780631ee1acb6146100b45780632358c046146100e457806336b4181c14610102575b600080fd5b6100b260048036038101906100ad9190610670565b6101fc565b005b6100ce60048036038101906100c99190610670565b610267565b6040516100db91906106b8565b60405180910390f35b6100ec61033c565b6040516100f99190610791565b60405180910390f35b61011c60048036038101906101179190610670565b6103ca565b005b610138600480360381019061013391906107e9565b610434565b6040516101459190610825565b60405180910390f35b610156610473565b604051610163919061084f565b60405180910390f35b610186600480360381019061018191906107e9565b61047f565b6040516101939190610825565b60405180910390f35b6101b660048036038101906101b19190610670565b610597565b6040516101c391906108e1565b60405180910390f35b6101e660048036038101906101e19190610670565b6105ed565b6040516101f391906108e1565b60405180910390f35b6002600160008373ffffffffffffffffffffffffffffffffffffffff1673ffffffffffffffffffffffffffffffffffffffff16815260200190815260200160002060006101000a81548160ff0219169083600281111561025f5761025e61086a565b5b021790555050565b600080829080600181540180825580915050600190039060005260206000200160009091909190916101000a81548173ffffffffffffffffffffffffffffffffffffffff021916908373ffffffffffffffffffffffffffffffffffffffff1602179055506000600160008473ffffffffffffffffffffffffffffffffffffffff1673ffffffffffffffffffffffffffffffffffffffff16815260200190815260200160002060006101000a81548160ff0219169083600281111561032e5761032d61086a565b5b021790555060019050919050565b606060008054806020026020016040519081016040528092919081815260200182805480156103c057602002820191906000526020600020905b8160009054906101000a900473ffffffffffffffffffffffffffffffffffffffff1673ffffffffffffffffffffffffffffffffffffffff1681526020019060010190808311610376575b5050505050905090565b60018060008373ffffffffffffffffffffffffffffffffffffffff1673ffffffffffffffffffffffffffffffffffffffff16815260200190815260200160002060006101000a81548160ff0219169083600281111561042c5761042b61086a565b5b021790555050565b6000818154811061044457600080fd5b906000526020600020016000915054906101000a900473ffffffffffffffffffffffffffffffffffffffff1681565b60008080549050905090565b6000808054905082111561049257600080fd5b600060028111156104a6576104a561086a565b5b600160008085815481106104bd576104bc6108fc565b5b9060005260206000200160009054906101000a900473ffffffffffffffffffffffffffffffffffffffff1673ffffffffffffffffffffffffffffffffffffffff1673ffffffffffffffffffffffffffffffffffffffff16815260200190815260200160002060009054906101000a900460ff1660028111156105425761054161086a565b5b0361058d576000828154811061055b5761055a6108fc565b5b9060005260206000200160009054906101000a900473ffffffffffffffffffffffffffffffffffffffff169050610592565b600080fd5b919050565b6000600160008373ffffffffffffffffffffffffffffffffffffffff1673ffffffffffffffffffffffffffffffffffffffff16815260200190815260200160002060009054906101000a900460ff169050919050565b60016020528060005260406000206000915054906101000a900460ff1681565b600080fd5b600073ffffffffffffffffffffffffffffffffffffffff82169050919050565b600061063d82610612565b9050919050565b61064d81610632565b811461065857600080fd5b50565b60008135905061066a81610644565b92915050565b6000602082840312156106865761068561060d565b5b60006106948482850161065b565b91505092915050565b60008115159050919050565b6106b28161069d565b82525050565b60006020820190506106cd60008301846106a9565b92915050565b600081519050919050565b600082825260208201905092915050565b6000819050602082019050919050565b61070881610632565b82525050565b600061071a83836106ff565b60208301905092915050565b6000602082019050919050565b600061073e826106d3565b61074881856106de565b9350610753836106ef565b8060005b8381101561078457815161076b888261070e565b975061077683610726565b925050600181019050610757565b5085935050505092915050565b600060208201905081810360008301526107ab8184610733565b905092915050565b6000819050919050565b6107c6816107b3565b81146107d157600080fd5b50565b6000813590506107e3816107bd565b92915050565b6000602082840312156107ff576107fe61060d565b5b600061080d848285016107d4565b91505092915050565b61081f81610632565b82525050565b600060208201905061083a6000830184610816565b92915050565b610849816107b3565b82525050565b60006020820190506108646000830184610840565b92915050565b7f4e487b7100000000000000000000000000000000000000000000000000000000600052602160045260246000fd5b600381106108aa576108a961086a565b5b50565b60008190506108bb82610899565b919050565b60006108cb826108ad565b9050919050565b6108db816108c0565b82525050565b60006020820190506108f660008301846108d2565b92915050565b7f4e487b7100000000000000000000000000000000000000000000000000000000600052603260045260246000fdfea2646970667358221220c69594aa67757aca98698b20adc045304d2c349f256e2131603c00ddabff4c4e64736f6c63430008100033",
  "immutableReferences": {},
  "source": "// SPDX-License-Identifier: GPL-3.0\npragma solidity ^0.8.0;\npragma experimental ABIEncoderV2;\n\n\ncontract TenderRepo {\n    address[] public tenders;\n    \n    enum TenderStatus {\n        activeOnBid,\n        biddingComplete,\n        contractDeployed\n    }\n\n    mapping (address => TenderStatus) public tenderMapping;\n\n    function newTender(address tenderToAppend) public returns (bool) {\n        tenders.push(tenderToAppend);\n        tenderMapping[tenderToAppend] = TenderStatus.activeOnBid;\n        return true;\n    }\n\n    function getTenderStatus(address tenderAddress) public view returns (TenderStatus) {\n        return tenderMapping[tenderAddress];\n    }\n\n    function getAllTenders() public view returns (address[] memory ) {\n        //to be used by verifier\n        return tenders;\n    }\n\n    function getTenderCount() public view returns (uint256) {\n        return tenders.length;\n    }\n\n    function getOngoingTenders(uint256 index) public view returns (address) {\n        //loop at web3\n        if (index > tenders.length) revert();\n        if (tenderMapping[tenders[index]] == TenderStatus.activeOnBid) {\n            return tenders[index]; \n        }\n        revert();\n    }\n\n    function updateTenderStatusToBiddingComplete(address tenderAddress) public {\n        tenderMapping[tenderAddress] = TenderStatus.biddingComplete;\n    }\n\n    function updateTenderStatusToDeployed(address tenderAddress) public {\n        tenderMapping[tenderAddress] = TenderStatus.contractDeployed;\n    }\n}",
  "sourcePath": "/home/aniketdatar/Desktop/Project/tendersystem-blockchain/contracts/TenderRepo.sol",
  "compiler": {
    "name": "solc",
    "version": "0.8.16+commit.07a7930e.Emscripten.clang"
  },
  "schemaVersion": "3.4.9",
  "updatedAt": "2023-02-06T17:22:58.827Z",
  "networkType": "ethereum",
  "devdoc": {
    "kind": "dev",
    "methods": {},
    "version": 1
  },
  "userdoc": {
    "kind": "user",
    "methods": {},
    "version": 1
  }
}