{
  "contractName": "Verifier",
  "abi": [
    {
      "inputs": [
        {
          "internalType": "address",
          "name": "_walletAddress",
          "type": "address"
        },
        {
          "internalType": "string",
          "name": "_email",
          "type": "string"
        },
        {
          "internalType": "string",
          "name": "_phoneNumber",
          "type": "string"
        },
        {
          "internalType": "string",
          "name": "_name",
          "type": "string"
        },
        {
          "internalType": "string",
          "name": "_employeeId",
          "type": "string"
        }
      ],
      "name": "setVerifier",
      "outputs": [
        {
          "internalType": "bool",
          "name": "",
          "type": "bool"
        }
      ],
      "stateMutability": "nonpayable",
      "type": "function"
    },
    {
      "inputs": [
        {
          "internalType": "address",
          "name": "govtOfficer",
          "type": "address"
        }
      ],
      "name": "verifyGovernmentOfficer",
      "outputs": [
        {
          "internalType": "bool",
          "name": "",
          "type": "bool"
        }
      ],
      "stateMutability": "nonpayable",
      "type": "function"
    },
    {
      "inputs": [
        {
          "internalType": "address",
          "name": "contrator",
          "type": "address"
        }
      ],
      "name": "verifyContractor",
      "outputs": [
        {
          "internalType": "bool",
          "name": "",
          "type": "bool"
        }
      ],
      "stateMutability": "nonpayable",
      "type": "function"
    },
    {
      "inputs": [
        {
          "internalType": "address",
          "name": "tender",
          "type": "address"
        }
      ],
      "name": "verifyProposalDocuments",
      "outputs": [
        {
          "internalType": "bool",
          "name": "",
          "type": "bool"
        }
      ],
      "stateMutability": "nonpayable",
      "type": "function"
    },
    {
      "inputs": [],
      "name": "myVerifiedDocuments",
      "outputs": [
        {
          "internalType": "address[]",
          "name": "",
          "type": "address[]"
        }
      ],
      "stateMutability": "view",
      "type": "function"
    },
    {
      "inputs": [],
      "name": "myVerifiedOfficers",
      "outputs": [
        {
          "internalType": "address[]",
          "name": "",
          "type": "address[]"
        }
      ],
      "stateMutability": "view",
      "type": "function"
    },
    {
      "inputs": [],
      "name": "myVerifiedContractors",
      "outputs": [
        {
          "internalType": "address[]",
          "name": "",
          "type": "address[]"
        }
      ],
      "stateMutability": "view",
      "type": "function"
    },
    {
      "inputs": [],
      "name": "logout",
      "outputs": [
        {
          "internalType": "bool",
          "name": "",
          "type": "bool"
        }
      ],
      "stateMutability": "nonpayable",
      "type": "function"
    }
  ],
  "bytecode": "0x608060405234801561001057600080fd5b50610c5c806100206000396000f3fe608060405234801561001057600080fd5b50600436106100885760003560e01c8063ad43f2ec1161005b578063ad43f2ec14610129578063c12bddae14610147578063dc7a72e714610177578063ed015aa6146101a757610088565b806308793b9a1461008d578063131b592c146100ab5780631f3c99c3146100db5780632e078452146100f9575b600080fd5b6100956101c5565b6040516100a2919061063d565b60405180910390f35b6100c560048036038101906100c0919061069f565b610253565b6040516100d291906106e7565b60405180910390f35b6100e36102c1565b6040516100f091906106e7565b60405180910390f35b610113600480360381019061010e919061069f565b6102c6565b60405161012091906106e7565b60405180910390f35b610131610334565b60405161013e919061063d565b60405180910390f35b610161600480360381019061015c9190610848565b6103c2565b60405161016e91906106e7565b60405180910390f35b610191600480360381019061018c919061069f565b610451565b60405161019e91906106e7565b60405180910390f35b6101af6104bf565b6040516101bc919061063d565b60405180910390f35b6060600780548060200260200160405190810160405280929190818152602001828054801561024957602002820191906000526020600020905b8160009054906101000a900473ffffffffffffffffffffffffffffffffffffffff1673ffffffffffffffffffffffffffffffffffffffff16815260200190600101908083116101ff575b5050505050905090565b60006005829080600181540180825580915050600190039060005260206000200160009091909190916101000a81548173ffffffffffffffffffffffffffffffffffffffff021916908373ffffffffffffffffffffffffffffffffffffffff16021790555060019050919050565b600090565b60006006829080600181540180825580915050600190039060005260206000200160009091909190916101000a81548173ffffffffffffffffffffffffffffffffffffffff021916908373ffffffffffffffffffffffffffffffffffffffff16021790555060019050919050565b606060058054806020026020016040519081016040528092919081815260200182805480156103b857602002820191906000526020600020905b8160009054906101000a900473ffffffffffffffffffffffffffffffffffffffff1673ffffffffffffffffffffffffffffffffffffffff168152602001906001019080831161036e575b5050505050905090565b6000856000806101000a81548173ffffffffffffffffffffffffffffffffffffffff021916908373ffffffffffffffffffffffffffffffffffffffff16021790555084600190816104139190610b54565b5083600290816104239190610b54565b5082600390816104339190610b54565b5081600490816104439190610b54565b506001905095945050505050565b60006007829080600181540180825580915050600190039060005260206000200160009091909190916101000a81548173ffffffffffffffffffffffffffffffffffffffff021916908373ffffffffffffffffffffffffffffffffffffffff16021790555060019050919050565b6060600680548060200260200160405190810160405280929190818152602001828054801561054357602002820191906000526020600020905b8160009054906101000a900473ffffffffffffffffffffffffffffffffffffffff1673ffffffffffffffffffffffffffffffffffffffff16815260200190600101908083116104f9575b5050505050905090565b600081519050919050565b600082825260208201905092915050565b6000819050602082019050919050565b600073ffffffffffffffffffffffffffffffffffffffff82169050919050565b60006105a482610579565b9050919050565b6105b481610599565b82525050565b60006105c683836105ab565b60208301905092915050565b6000602082019050919050565b60006105ea8261054d565b6105f48185610558565b93506105ff83610569565b8060005b8381101561063057815161061788826105ba565b9750610622836105d2565b925050600181019050610603565b5085935050505092915050565b6000602082019050818103600083015261065781846105df565b905092915050565b6000604051905090565b600080fd5b600080fd5b61067c81610599565b811461068757600080fd5b50565b60008135905061069981610673565b92915050565b6000602082840312156106b5576106b4610669565b5b60006106c38482850161068a565b91505092915050565b60008115159050919050565b6106e1816106cc565b82525050565b60006020820190506106fc60008301846106d8565b92915050565b600080fd5b600080fd5b6000601f19601f8301169050919050565b7f4e487b7100000000000000000000000000000000000000000000000000000000600052604160045260246000fd5b6107558261070c565b810181811067ffffffffffffffff821117156107745761077361071d565b5b80604052505050565b600061078761065f565b9050610793828261074c565b919050565b600067ffffffffffffffff8211156107b3576107b261071d565b5b6107bc8261070c565b9050602081019050919050565b82818337600083830152505050565b60006107eb6107e684610798565b61077d565b90508281526020810184848401111561080757610806610707565b5b6108128482856107c9565b509392505050565b600082601f83011261082f5761082e610702565b5b813561083f8482602086016107d8565b91505092915050565b600080600080600060a0868803121561086457610863610669565b5b60006108728882890161068a565b955050602086013567ffffffffffffffff8111156108935761089261066e565b5b61089f8882890161081a565b945050604086013567ffffffffffffffff8111156108c0576108bf61066e565b5b6108cc8882890161081a565b935050606086013567ffffffffffffffff8111156108ed576108ec61066e565b5b6108f98882890161081a565b925050608086013567ffffffffffffffff81111561091a5761091961066e565b5b6109268882890161081a565b9150509295509295909350565b600081519050919050565b7f4e487b7100000000000000000000000000000000000000000000000000000000600052602260045260246000fd5b6000600282049050600182168061098557607f821691505b6020821081036109985761099761093e565b5b50919050565b60008190508160005260206000209050919050565b60006020601f8301049050919050565b600082821b905092915050565b600060088302610a007fffffffffffffffffffffffffffffffffffffffffffffffffffffffffffffffff826109c3565b610a0a86836109c3565b95508019841693508086168417925050509392505050565b6000819050919050565b6000819050919050565b6000610a51610a4c610a4784610a22565b610a2c565b610a22565b9050919050565b6000819050919050565b610a6b83610a36565b610a7f610a7782610a58565b8484546109d0565b825550505050565b600090565b610a94610a87565b610a9f818484610a62565b505050565b5b81811015610ac357610ab8600082610a8c565b600181019050610aa5565b5050565b601f821115610b0857610ad98161099e565b610ae2846109b3565b81016020851015610af1578190505b610b05610afd856109b3565b830182610aa4565b50505b505050565b600082821c905092915050565b6000610b2b60001984600802610b0d565b1980831691505092915050565b6000610b448383610b1a565b9150826002028217905092915050565b610b5d82610933565b67ffffffffffffffff811115610b7657610b7561071d565b5b610b80825461096d565b610b8b828285610ac7565b600060209050601f831160018114610bbe5760008415610bac578287015190505b610bb68582610b38565b865550610c1e565b601f198416610bcc8661099e565b60005b82811015610bf457848901518255600182019150602085019450602081019050610bcf565b86831015610c115784890151610c0d601f891682610b1a565b8355505b6001600288020188555050505b50505050505056fea2646970667358221220725ac75b5f2c5e53d4104cb0f248737ebb41626f8db1f8592ad0723d92b61cbd64736f6c63430008100033",
  "immutableReferences": {},
  "source": "// SPDX-License-Identifier: GPL-3.0\npragma solidity ^0.8.0;\npragma experimental ABIEncoderV2;\n\n\ncontract Verifier {\n\n    address walletAddress;\n    string email;\n    string phoneNumber;\n    string name;\n    string employeeId;\n    address[] documentsVerified;\n    address[] officersVerified;\n    address[] contractorsVerified;\n    \n    function setVerifier (address _walletAddress, string memory  _email, string memory  _phoneNumber, string memory  _name, \n    string memory  _employeeId) public returns (bool) {\n        walletAddress = _walletAddress;\n        email = _email;\n        phoneNumber = _phoneNumber;\n        name = _name;\n        employeeId = _employeeId;\n        return true;\n    }\n\n    // function login(address userAddress, string role) public  returns (string) {\n    // }\n\n    // //unverified\n    // function getAllUnverifiedGovernmentOfficers(string token) public returns (address[]) {\n    //     //defined in GovernmentOfficerRepo\n    // }    \n\n    // function getAllUnverifiedContractors(string token) public returns (address[]) {\n    //     //defined in ContractorRepo\n    // }   \n\n    // function getAllUnverifiedDocuments(string token) public returns (string[]) {\n    //     //getProposalToVerify() in Tender.sol\n    // }\n\n\n    // verification\n    function verifyGovernmentOfficer(address govtOfficer) public returns (bool) {\n        officersVerified.push(govtOfficer);\n        return true;\n    }\n\n    function verifyContractor(address contrator) public returns (bool) {\n        contractorsVerified.push(contrator);\n        return true;\n    }\n\n    function verifyProposalDocuments(address tender) public returns (bool) {\n        documentsVerified.push(tender);\n        return true;\n    }\n\n    function myVerifiedDocuments() public view returns (address[] memory ) {\n        return documentsVerified;\n    }\n\n    function myVerifiedOfficers() public view returns (address[] memory) {\n        return officersVerified;\n    }\n\n    function myVerifiedContractors() public view returns (address[] memory ) {\n        return contractorsVerified;\n    }\n\n    function logout() public returns(bool) {\n\n    }\n}",
  "sourcePath": "/home/aniketdatar/Desktop/Project/tendersystem-blockchain/contracts/Verifier.sol",
  "compiler": {
    "name": "solc",
    "version": "0.8.16+commit.07a7930e.Emscripten.clang"
  },
  "schemaVersion": "3.4.9",
  "updatedAt": "2023-02-02T15:24:04.524Z",
  "devdoc": {
    "kind": "dev",
    "methods": {},
    "version": 1
  },
  "userdoc": {
    "kind": "user",
    "methods": {},
    "version": 1
  }
}